{
  "contractName": "Product",
  "abi": [
    {
      "constant": false,
      "inputs": [
        {
          "name": "_name",
          "type": "bytes32"
        },
        {
          "name": "_sku",
          "type": "bytes32"
        },
        {
          "name": "_category",
          "type": "bytes32"
        },
        {
          "name": "_price",
          "type": "uint256"
        },
        {
          "name": "_stock",
          "type": "uint256"
        },
        {
          "name": "_image",
          "type": "bytes32"
        }
      ],
      "name": "update",
      "outputs": [
        {
          "name": "success",
          "type": "bool"
        }
      ],
      "payable": false,
      "type": "function",
      "stateMutability": "nonpayable"
    },
    {
      "constant": true,
      "inputs": [],
      "name": "name",
      "outputs": [
        {
          "name": "",
          "type": "bytes32"
        }
      ],
      "payable": false,
      "type": "function",
      "stateMutability": "view"
    },
    {
      "constant": false,
      "inputs": [
        {
          "name": "_sku",
          "type": "bytes32"
        }
      ],
      "name": "setSku",
      "outputs": [
        {
          "name": "success",
          "type": "bool"
        }
      ],
      "payable": false,
      "type": "function",
      "stateMutability": "nonpayable"
    },
    {
      "constant": false,
      "inputs": [
        {
          "name": "newOwner",
          "type": "address"
        }
      ],
      "name": "setOwner",
      "outputs": [
        {
          "name": "success",
          "type": "bool"
        }
      ],
      "payable": false,
      "type": "function",
      "stateMutability": "nonpayable"
    },
    {
      "constant": true,
      "inputs": [],
      "name": "sku",
      "outputs": [
        {
          "name": "",
          "type": "bytes32"
        }
      ],
      "payable": false,
      "type": "function",
      "stateMutability": "view"
    },
    {
      "constant": false,
      "inputs": [
        {
          "name": "_stock",
          "type": "uint256"
        }
      ],
      "name": "setStock",
      "outputs": [
        {
          "name": "success",
          "type": "bool"
        }
      ],
      "payable": false,
      "type": "function",
      "stateMutability": "nonpayable"
    },
    {
      "constant": false,
      "inputs": [
        {
          "name": "_name",
          "type": "bytes32"
        }
      ],
      "name": "setName",
      "outputs": [
        {
          "name": "success",
          "type": "bool"
        }
      ],
      "payable": false,
      "type": "function",
      "stateMutability": "nonpayable"
    },
    {
      "constant": false,
      "inputs": [
        {
          "name": "_category",
          "type": "bytes32"
        }
      ],
      "name": "setCategory",
      "outputs": [
        {
          "name": "success",
          "type": "bool"
        }
      ],
      "payable": false,
      "type": "function",
      "stateMutability": "nonpayable"
    },
    {
      "constant": false,
      "inputs": [],
      "name": "destroy",
      "outputs": [
        {
          "name": "success",
          "type": "bool"
        }
      ],
      "payable": false,
      "type": "function",
      "stateMutability": "nonpayable"
    },
    {
      "constant": false,
      "inputs": [
        {
          "name": "_image",
          "type": "bytes32"
        }
      ],
      "name": "setImage",
      "outputs": [
        {
          "name": "success",
          "type": "bool"
        }
      ],
      "payable": false,
      "type": "function",
      "stateMutability": "nonpayable"
    },
    {
      "constant": true,
      "inputs": [],
      "name": "owner",
      "outputs": [
        {
          "name": "",
          "type": "address"
        }
      ],
      "payable": false,
      "type": "function",
      "stateMutability": "view"
    },
    {
      "constant": false,
      "inputs": [
        {
          "name": "_price",
          "type": "uint256"
        }
      ],
      "name": "setPrice",
      "outputs": [
        {
          "name": "success",
          "type": "bool"
        }
      ],
      "payable": false,
      "type": "function",
      "stateMutability": "nonpayable"
    },
    {
      "constant": true,
      "inputs": [],
      "name": "price",
      "outputs": [
        {
          "name": "",
          "type": "uint256"
        }
      ],
      "payable": false,
      "type": "function",
      "stateMutability": "view"
    },
    {
      "constant": false,
      "inputs": [
        {
          "name": "_merchant",
          "type": "address"
        }
      ],
      "name": "setMerchant",
      "outputs": [
        {
          "name": "success",
          "type": "bool"
        }
      ],
      "payable": false,
      "type": "function",
      "stateMutability": "nonpayable"
    },
    {
      "constant": true,
      "inputs": [],
      "name": "merchant",
      "outputs": [
        {
          "name": "",
          "type": "address"
        }
      ],
      "payable": false,
      "type": "function",
      "stateMutability": "view"
    },
    {
      "constant": true,
      "inputs": [],
      "name": "stock",
      "outputs": [
        {
          "name": "",
          "type": "uint256"
        }
      ],
      "payable": false,
      "type": "function",
      "stateMutability": "view"
    },
    {
      "constant": true,
      "inputs": [],
      "name": "category",
      "outputs": [
        {
          "name": "",
          "type": "bytes32"
        }
      ],
      "payable": false,
      "type": "function",
      "stateMutability": "view"
    },
    {
      "constant": true,
      "inputs": [],
      "name": "image",
      "outputs": [
        {
          "name": "",
          "type": "bytes32"
        }
      ],
      "payable": false,
      "type": "function",
      "stateMutability": "view"
    },
    {
      "inputs": [
        {
          "name": "_merchant",
          "type": "address"
        },
        {
          "name": "_name",
          "type": "bytes32"
        },
        {
          "name": "_sku",
          "type": "bytes32"
        },
        {
          "name": "_category",
          "type": "bytes32"
        },
        {
          "name": "_price",
          "type": "uint256"
        },
        {
          "name": "_stock",
          "type": "uint256"
        },
        {
          "name": "_image",
          "type": "bytes32"
        }
      ],
      "payable": false,
      "type": "constructor",
      "stateMutability": "nonpayable"
    },
    {
      "anonymous": false,
      "inputs": [
        {
          "indexed": true,
          "name": "who",
          "type": "address"
        },
        {
          "indexed": true,
          "name": "name",
          "type": "bytes32"
        },
        {
          "indexed": true,
          "name": "sku",
          "type": "bytes32"
        },
        {
          "indexed": false,
          "name": "category",
          "type": "bytes32"
        },
        {
          "indexed": false,
          "name": "price",
          "type": "uint256"
        },
        {
          "indexed": false,
          "name": "stock",
          "type": "uint256"
        },
        {
          "indexed": false,
          "name": "image",
          "type": "bytes32"
        }
      ],
      "name": "LogUpdate",
      "type": "event"
    },
    {
      "anonymous": false,
      "inputs": [
        {
          "indexed": true,
          "name": "who",
          "type": "address"
        },
        {
          "indexed": true,
          "name": "merchant",
          "type": "address"
        }
      ],
      "name": "LogSetMerchant",
      "type": "event"
    },
    {
      "anonymous": false,
      "inputs": [
        {
          "indexed": true,
          "name": "who",
          "type": "address"
        },
        {
          "indexed": true,
          "name": "name",
          "type": "bytes32"
        }
      ],
      "name": "LogSetName",
      "type": "event"
    },
    {
      "anonymous": false,
      "inputs": [
        {
          "indexed": true,
          "name": "who",
          "type": "address"
        },
        {
          "indexed": true,
          "name": "sku",
          "type": "bytes32"
        }
      ],
      "name": "LogSetSku",
      "type": "event"
    },
    {
      "anonymous": false,
      "inputs": [
        {
          "indexed": true,
          "name": "who",
          "type": "address"
        },
        {
          "indexed": true,
          "name": "category",
          "type": "bytes32"
        }
      ],
      "name": "LogSetCategory",
      "type": "event"
    },
    {
      "anonymous": false,
      "inputs": [
        {
          "indexed": true,
          "name": "who",
          "type": "address"
        },
        {
          "indexed": true,
          "name": "price",
          "type": "uint256"
        }
      ],
      "name": "LogSetPrice",
      "type": "event"
    },
    {
      "anonymous": false,
      "inputs": [
        {
          "indexed": true,
          "name": "who",
          "type": "address"
        },
        {
          "indexed": true,
          "name": "stock",
          "type": "uint256"
        }
      ],
      "name": "LogSetStock",
      "type": "event"
    },
    {
      "anonymous": false,
      "inputs": [
        {
          "indexed": true,
          "name": "who",
          "type": "address"
        },
        {
          "indexed": true,
          "name": "image",
          "type": "bytes32"
        }
      ],
      "name": "LogSetImage",
      "type": "event"
    },
    {
      "anonymous": false,
      "inputs": [
        {
          "indexed": true,
          "name": "who",
          "type": "address"
        }
      ],
      "name": "LogDestroy",
      "type": "event"
    },
    {
      "anonymous": false,
      "inputs": [
        {
          "indexed": true,
          "name": "oldOwner",
          "type": "address"
        },
        {
          "indexed": true,
          "name": "newOwner",
          "type": "address"
        }
      ],
      "name": "LogSetOwner",
      "type": "event"
    }
  ],
  "bytecode": "0x6060604052341561000f57600080fd5b60405160e08061155b83398101604052808051906020019091908051906020019091908051906020019091908051906020019091908051906020019091908051906020019091908051906020019091905050336000806101000a81548173ffffffffffffffffffffffffffffffffffffffff021916908373ffffffffffffffffffffffffffffffffffffffff160217905550600073ffffffffffffffffffffffffffffffffffffffff168773ffffffffffffffffffffffffffffffffffffffff16141515156100dd57600080fd5b60008660001916141515156100f157600080fd5b600085600019161415151561010557600080fd5b600084600019161415151561011957600080fd5b86600160006101000a81548173ffffffffffffffffffffffffffffffffffffffff021916908373ffffffffffffffffffffffffffffffffffffffff16021790555085600281600019169055508460038160001916905550836004816000191690555082600581905550816006819055508060078160001916905550505050505050506113b1806101aa6000396000f3006060604052600436106100fb576000357c0100000000000000000000000000000000000000000000000000000000900463ffffffff168062165a581461010057806306fdde03146101785780630ce91383146101a957806313af4035146101e85780634462f40c14610239578063474a99951461026a5780635ac801fe146102a5578063740b9060146102e457806383197ef01461032357806384ac7cde146103505780638da5cb5b1461038f57806391b7f5ed146103e4578063a035b1fe1461041f578063a2fba48414610448578063a5ff765114610499578063bdf3c4ae146104ee578063ef430aa614610517578063f3ccaac014610548575b600080fd5b341561010b57600080fd5b61015e600480803560001916906020019091908035600019169060200190919080356000191690602001909190803590602001909190803590602001909190803560001916906020019091905050610579565b604051808215151515815260200191505060405180910390f35b341561018357600080fd5b61018b61079a565b60405180826000191660001916815260200191505060405180910390f35b34156101b457600080fd5b6101ce6004808035600019169060200190919050506107a0565b604051808215151515815260200191505060405180910390f35b34156101f357600080fd5b61021f600480803573ffffffffffffffffffffffffffffffffffffffff169060200190919050506108de565b604051808215151515815260200191505060405180910390f35b341561024457600080fd5b61024c610a97565b60405180826000191660001916815260200191505060405180910390f35b341561027557600080fd5b61028b6004808035906020019091905050610a9d565b604051808215151515815260200191505060405180910390f35b34156102b057600080fd5b6102ca600480803560001916906020019091905050610bb7565b604051808215151515815260200191505060405180910390f35b34156102ef57600080fd5b610309600480803560001916906020019091905050610cf5565b604051808215151515815260200191505060405180910390f35b341561032e57600080fd5b610336610e33565b604051808215151515815260200191505060405180910390f35b341561035b57600080fd5b610375600480803560001916906020019091905050610eec565b604051808215151515815260200191505060405180910390f35b341561039a57600080fd5b6103a2611016565b604051808273ffffffffffffffffffffffffffffffffffffffff1673ffffffffffffffffffffffffffffffffffffffff16815260200191505060405180910390f35b34156103ef57600080fd5b610405600480803590602001909190505061103b565b604051808215151515815260200191505060405180910390f35b341561042a57600080fd5b610432611155565b6040518082815260200191505060405180910390f35b341561045357600080fd5b61047f600480803573ffffffffffffffffffffffffffffffffffffffff1690602001909190505061115b565b604051808215151515815260200191505060405180910390f35b34156104a457600080fd5b6104ac61134d565b604051808273ffffffffffffffffffffffffffffffffffffffff1673ffffffffffffffffffffffffffffffffffffffff16815260200191505060405180910390f35b34156104f957600080fd5b610501611373565b6040518082815260200191505060405180910390f35b341561052257600080fd5b61052a611379565b60405180826000191660001916815260200191505060405180910390f35b341561055357600080fd5b61055b61137f565b60405180826000191660001916815260200191505060405180910390f35b60008060009054906101000a900473ffffffffffffffffffffffffffffffffffffffff1673ffffffffffffffffffffffffffffffffffffffff163373ffffffffffffffffffffffffffffffffffffffff1614806106235750600160009054906101000a900473ffffffffffffffffffffffffffffffffffffffff1673ffffffffffffffffffffffffffffffffffffffff163373ffffffffffffffffffffffffffffffffffffffff16145b151561062e57600080fd5b600087600019161415151561064257600080fd5b600086600019161415151561065657600080fd5b600085600019161415151561066a57600080fd5b8660001916600254600019161415156106895786600281600019169055505b8560001916600354600019161415156106a85785600381600019169055505b8460001916600454600019161415156106c75784600481600019169055505b836005541415156106da57836005819055505b826006541415156106ed57826006819055505b81600019166007546000191614151561070c5781600781600019169055505b856000191687600019163373ffffffffffffffffffffffffffffffffffffffff167f9392c64a2d28fd958a16a542518015718cdf73d514d1852b34b6a67f1d87713a88888888604051808560001916600019168152602001848152602001838152602001826000191660001916815260200194505050505060405180910390a4600190509695505050505050565b60025481565b60008060009054906101000a900473ffffffffffffffffffffffffffffffffffffffff1673ffffffffffffffffffffffffffffffffffffffff163373ffffffffffffffffffffffffffffffffffffffff16148061084a5750600160009054906101000a900473ffffffffffffffffffffffffffffffffffffffff1673ffffffffffffffffffffffffffffffffffffffff163373ffffffffffffffffffffffffffffffffffffffff16145b151561085557600080fd5b600082600019161415151561086957600080fd5b6003546000191682600019161415151561088257600080fd5b816003816000191690555081600019163373ffffffffffffffffffffffffffffffffffffffff167f607d0df8cb6aa96c05a0dee1c8e52479fb01e15fe32e7f0ff60c2880a9cf66be60405160405180910390a360019050919050565b60008060009054906101000a900473ffffffffffffffffffffffffffffffffffffffff1673ffffffffffffffffffffffffffffffffffffffff163373ffffffffffffffffffffffffffffffffffffffff1614151561093b57600080fd5b600073ffffffffffffffffffffffffffffffffffffffff168273ffffffffffffffffffffffffffffffffffffffff161415151561097757600080fd5b6000809054906101000a900473ffffffffffffffffffffffffffffffffffffffff1673ffffffffffffffffffffffffffffffffffffffff168273ffffffffffffffffffffffffffffffffffffffff16141515156109d357600080fd5b8173ffffffffffffffffffffffffffffffffffffffff166000809054906101000a900473ffffffffffffffffffffffffffffffffffffffff1673ffffffffffffffffffffffffffffffffffffffff167fc66d1d23a5b7baf1f496bb19f580d7b12070ad5a08a758c990db97d961fa33a660405160405180910390a3816000806101000a81548173ffffffffffffffffffffffffffffffffffffffff021916908373ffffffffffffffffffffffffffffffffffffffff16021790555060019050919050565b60035481565b60008060009054906101000a900473ffffffffffffffffffffffffffffffffffffffff1673ffffffffffffffffffffffffffffffffffffffff163373ffffffffffffffffffffffffffffffffffffffff161480610b475750600160009054906101000a900473ffffffffffffffffffffffffffffffffffffffff1673ffffffffffffffffffffffffffffffffffffffff163373ffffffffffffffffffffffffffffffffffffffff16145b1515610b5257600080fd5b6006548214151515610b6357600080fd5b81600681905550813373ffffffffffffffffffffffffffffffffffffffff167fc9167e4a841ea3fffdee7b626da4597afe3523879a40521ec2e881737645f0ae60405160405180910390a360019050919050565b60008060009054906101000a900473ffffffffffffffffffffffffffffffffffffffff1673ffffffffffffffffffffffffffffffffffffffff163373ffffffffffffffffffffffffffffffffffffffff161480610c615750600160009054906101000a900473ffffffffffffffffffffffffffffffffffffffff1673ffffffffffffffffffffffffffffffffffffffff163373ffffffffffffffffffffffffffffffffffffffff16145b1515610c6c57600080fd5b6000826000191614151515610c8057600080fd5b60025460001916826000191614151515610c9957600080fd5b816002816000191690555081600019163373ffffffffffffffffffffffffffffffffffffffff167f10bcd4ebf5eb4a72aed4165f9c60624db2f28432e069b36d2a51db7af3ce649260405160405180910390a360019050919050565b60008060009054906101000a900473ffffffffffffffffffffffffffffffffffffffff1673ffffffffffffffffffffffffffffffffffffffff163373ffffffffffffffffffffffffffffffffffffffff161480610d9f5750600160009054906101000a900473ffffffffffffffffffffffffffffffffffffffff1673ffffffffffffffffffffffffffffffffffffffff163373ffffffffffffffffffffffffffffffffffffffff16145b1515610daa57600080fd5b6000826000191614151515610dbe57600080fd5b60045460001916826000191614151515610dd757600080fd5b816004816000191690555081600019163373ffffffffffffffffffffffffffffffffffffffff167fb6c9aa0578360fddf78a16a27b0e24065cda40062badfba6419d791ce6da821d60405160405180910390a360019050919050565b60008060009054906101000a900473ffffffffffffffffffffffffffffffffffffffff1673ffffffffffffffffffffffffffffffffffffffff163373ffffffffffffffffffffffffffffffffffffffff16141515610e9057600080fd5b3373ffffffffffffffffffffffffffffffffffffffff167f5c572226ad6ee27ebcc36c5d73ad4ed4967e10941f931eadb521f822c890250160405160405180910390a23373ffffffffffffffffffffffffffffffffffffffff16ff5b60008060009054906101000a900473ffffffffffffffffffffffffffffffffffffffff1673ffffffffffffffffffffffffffffffffffffffff163373ffffffffffffffffffffffffffffffffffffffff161480610f965750600160009054906101000a900473ffffffffffffffffffffffffffffffffffffffff1673ffffffffffffffffffffffffffffffffffffffff163373ffffffffffffffffffffffffffffffffffffffff16145b1515610fa157600080fd5b60075460001916826000191614151515610fba57600080fd5b816007816000191690555081600019163373ffffffffffffffffffffffffffffffffffffffff167ffcf0a5a19bf31bb5e253719fa4e87fb6a0d360ab9c8693a0903346a3be3992b960405160405180910390a360019050919050565b6000809054906101000a900473ffffffffffffffffffffffffffffffffffffffff1681565b60008060009054906101000a900473ffffffffffffffffffffffffffffffffffffffff1673ffffffffffffffffffffffffffffffffffffffff163373ffffffffffffffffffffffffffffffffffffffff1614806110e55750600160009054906101000a900473ffffffffffffffffffffffffffffffffffffffff1673ffffffffffffffffffffffffffffffffffffffff163373ffffffffffffffffffffffffffffffffffffffff16145b15156110f057600080fd5b600554821415151561110157600080fd5b81600581905550813373ffffffffffffffffffffffffffffffffffffffff167fbf5fc5fd4b94ae616917ea11ea4692aa670c208dd5fc4e4d03ea30683e1d436360405160405180910390a360019050919050565b60055481565b60008060009054906101000a900473ffffffffffffffffffffffffffffffffffffffff1673ffffffffffffffffffffffffffffffffffffffff163373ffffffffffffffffffffffffffffffffffffffff1614806112055750600160009054906101000a900473ffffffffffffffffffffffffffffffffffffffff1673ffffffffffffffffffffffffffffffffffffffff163373ffffffffffffffffffffffffffffffffffffffff16145b151561121057600080fd5b600073ffffffffffffffffffffffffffffffffffffffff168273ffffffffffffffffffffffffffffffffffffffff161415151561124c57600080fd5b600160009054906101000a900473ffffffffffffffffffffffffffffffffffffffff1673ffffffffffffffffffffffffffffffffffffffff168273ffffffffffffffffffffffffffffffffffffffff16141515156112a957600080fd5b81600160006101000a81548173ffffffffffffffffffffffffffffffffffffffff021916908373ffffffffffffffffffffffffffffffffffffffff1602179055508173ffffffffffffffffffffffffffffffffffffffff163373ffffffffffffffffffffffffffffffffffffffff167f8c296f3a759ab830cbfcd7f384a0f967edf2eca6f2b98d512c5652130493297060405160405180910390a360019050919050565b600160009054906101000a900473ffffffffffffffffffffffffffffffffffffffff1681565b60065481565b60045481565b600754815600a165627a7a72305820df1679faf7808d9c3e640a8fd145b112498c2f9e56ae864902f406ad876b486e0029",
  "source": "pragma solidity 0.4.18;\r\n\r\nimport \"./Killable.sol\";\r\n\r\ncontract Product is Ownable {\r\n    address public merchant;\r\n\r\n    bytes32 public name;\r\n    bytes32 public sku;\r\n    bytes32 public category;\r\n    uint public price;\r\n    uint public stock;\r\n    bytes32 public image;\r\n\r\n    event LogUpdate(address indexed who, bytes32 indexed name, bytes32 indexed sku, bytes32 category, uint price, uint stock, bytes32 image);\r\n    event LogSetMerchant(address indexed who, address indexed merchant);\r\n    event LogSetName(address indexed who, bytes32 indexed name);\r\n    event LogSetSku(address indexed who, bytes32 indexed sku);\r\n    event LogSetCategory(address indexed who, bytes32 indexed category);\r\n    event LogSetPrice(address indexed who, uint indexed price);\r\n    event LogSetStock(address indexed who, uint indexed stock);\r\n    event LogSetImage(address indexed who, bytes32 indexed image);\r\n    event LogDestroy(address indexed who);\r\n\r\n    modifier isOwnerOrMerchant() {\r\n        require(msg.sender == owner || msg.sender == merchant);\r\n        _;\r\n    }\r\n\r\n    function Product(\r\n        address _merchant, \r\n        bytes32 _name, \r\n        bytes32 _sku, \r\n        bytes32 _category, \r\n        uint _price, \r\n        uint _stock, \r\n        bytes32 _image\r\n    ) \r\n    Ownable()\r\n    {\r\n        require(_merchant != address(0));\r\n        require(_name != \"\");\r\n        require(_sku != \"\");\r\n        require(_category != \"\");\r\n\r\n        merchant = _merchant;\r\n\r\n        name = _name;\r\n        sku = _sku;\r\n        category = _category;\r\n        price = _price;\r\n        stock = _stock;\r\n        image = _image;\r\n    }\r\n\r\n    function update(\r\n        bytes32 _name,\r\n        bytes32 _sku,\r\n        bytes32 _category,\r\n        uint _price,\r\n        uint _stock,\r\n        bytes32 _image\r\n    ) \r\n        public\r\n        isOwnerOrMerchant\r\n        returns(bool success) \r\n    {\r\n        require(_name != \"\");\r\n        require(_sku != \"\");\r\n        require(_category != \"\");\r\n\r\n        if (name != _name) {\r\n            name = _name;\r\n        }\r\n        if (sku != _sku) {\r\n            sku = _sku;\r\n        }\r\n        if (category != _category) {\r\n            category = _category;\r\n        }\r\n        if (price != _price) {\r\n            price = _price;\r\n        }\r\n        if (stock != _stock) {\r\n            stock = _stock;\r\n        }\r\n        if (image != _image) {\r\n            image = _image;\r\n        }\r\n\r\n        LogUpdate(msg.sender, _name, _sku, _category, _price, _stock, _image);\r\n\r\n        return true;\r\n    }\r\n\r\n    function setMerchant(address _merchant)\r\n        isOwnerOrMerchant\r\n        public\r\n        returns(bool success)\r\n    {\r\n        require(_merchant != address(0));\r\n        require(_merchant != merchant);\r\n\r\n        merchant = _merchant;\r\n\r\n        LogSetMerchant(msg.sender, _merchant);\r\n\r\n        return true;\r\n    }\r\n\r\n    function setName(bytes32 _name) \r\n        public\r\n        isOwnerOrMerchant\r\n        returns(bool success) \r\n    {\r\n        require(_name != \"\");\r\n        require(_name != name);\r\n\r\n        name = _name;\r\n\r\n        LogSetName(msg.sender, _name);\r\n\r\n        return true;\r\n    }\r\n\r\n    function setSku(bytes32 _sku) \r\n        public\r\n        isOwnerOrMerchant\r\n        returns(bool success) \r\n    {\r\n        require(_sku != \"\");\r\n        require(_sku != sku);\r\n\r\n        sku = _sku;\r\n\r\n        LogSetSku(msg.sender, _sku);\r\n\r\n        return true;\r\n    }\r\n\r\n    function setCategory(bytes32 _category) \r\n        public\r\n        isOwnerOrMerchant\r\n        returns(bool success) \r\n    {\r\n        require(_category != \"\");\r\n        require(_category != category);\r\n\r\n        category = _category;\r\n\r\n        LogSetCategory(msg.sender, _category);\r\n\r\n        return true;\r\n    }\r\n\r\n    function setPrice(uint _price) \r\n        public\r\n        isOwnerOrMerchant\r\n        returns(bool success) \r\n    {\r\n        require(_price != price);\r\n        price = _price;\r\n\r\n        LogSetPrice(msg.sender, _price);\r\n\r\n        return true;\r\n    }\r\n\r\n    function setStock(uint _stock) \r\n        public\r\n        isOwnerOrMerchant\r\n        returns(bool success) \r\n    {\r\n        require(_stock != stock);\r\n        stock = _stock;\r\n\r\n        LogSetStock(msg.sender, _stock);\r\n\r\n        return true;\r\n    }\r\n\r\n    function setImage(bytes32 _image) \r\n        public\r\n        isOwnerOrMerchant\r\n        returns(bool success) \r\n    {\r\n        require(_image != image);\r\n        image = _image;\r\n\r\n        LogSetImage(msg.sender, _image);\r\n\r\n        return true;\r\n    }\r\n\r\n    function destroy() \r\n        public\r\n        isOwner\r\n        returns(bool success)\r\n    {\r\n        LogDestroy(msg.sender);\r\n        selfdestruct(msg.sender);\r\n        return true;\r\n    }\r\n}",
  "sourcePath": "F:\\DAPPS\\shop\\contracts\\Product.sol",
  "compiler": {
    "name": "solc",
    "version": "0.4.18+commit.9cf6e910.Emscripten.clang"
  },
  "schemaVersion": "1.0.1",
  "updatedAt": "2017-11-18T12:08:49.671Z"
}