{
  "contractName": "UnsafeOrder",
  "abi": [
    {
      "constant": true,
      "inputs": [],
      "name": "shop",
      "outputs": [
        {
          "name": "",
          "type": "address"
        }
      ],
      "payable": false,
      "type": "function",
      "stateMutability": "view"
    },
    {
      "constant": false,
      "inputs": [
        {
          "name": "newOwner",
          "type": "address"
        }
      ],
      "name": "setOwner",
      "outputs": [
        {
          "name": "success",
          "type": "bool"
        }
      ],
      "payable": false,
      "type": "function",
      "stateMutability": "nonpayable"
    },
    {
      "constant": false,
      "inputs": [
        {
          "name": "newPaused",
          "type": "bool"
        }
      ],
      "name": "setPaused",
      "outputs": [
        {
          "name": "success",
          "type": "bool"
        }
      ],
      "payable": false,
      "type": "function",
      "stateMutability": "nonpayable"
    },
    {
      "constant": false,
      "inputs": [
        {
          "name": "_product",
          "type": "address"
        },
        {
          "name": "_quantity",
          "type": "uint256"
        }
      ],
      "name": "removeProduct",
      "outputs": [
        {
          "name": "success",
          "type": "bool"
        }
      ],
      "payable": false,
      "type": "function",
      "stateMutability": "nonpayable"
    },
    {
      "constant": true,
      "inputs": [],
      "name": "killed",
      "outputs": [
        {
          "name": "",
          "type": "bool"
        }
      ],
      "payable": false,
      "type": "function",
      "stateMutability": "view"
    },
    {
      "constant": false,
      "inputs": [
        {
          "name": "_total",
          "type": "uint256"
        }
      ],
      "name": "setTotal",
      "outputs": [
        {
          "name": "success",
          "type": "bool"
        }
      ],
      "payable": false,
      "type": "function",
      "stateMutability": "nonpayable"
    },
    {
      "constant": true,
      "inputs": [],
      "name": "status",
      "outputs": [
        {
          "name": "",
          "type": "uint8"
        }
      ],
      "payable": false,
      "type": "function",
      "stateMutability": "view"
    },
    {
      "constant": true,
      "inputs": [],
      "name": "total",
      "outputs": [
        {
          "name": "",
          "type": "uint256"
        }
      ],
      "payable": false,
      "type": "function",
      "stateMutability": "view"
    },
    {
      "constant": false,
      "inputs": [
        {
          "name": "_status",
          "type": "uint8"
        }
      ],
      "name": "setStatus",
      "outputs": [
        {
          "name": "success",
          "type": "bool"
        }
      ],
      "payable": false,
      "type": "function",
      "stateMutability": "nonpayable"
    },
    {
      "constant": true,
      "inputs": [
        {
          "name": "",
          "type": "uint256"
        }
      ],
      "name": "productIndex",
      "outputs": [
        {
          "name": "",
          "type": "address"
        }
      ],
      "payable": false,
      "type": "function",
      "stateMutability": "view"
    },
    {
      "constant": false,
      "inputs": [],
      "name": "kill",
      "outputs": [
        {
          "name": "success",
          "type": "bool"
        }
      ],
      "payable": false,
      "type": "function",
      "stateMutability": "nonpayable"
    },
    {
      "constant": true,
      "inputs": [],
      "name": "getProductCount",
      "outputs": [
        {
          "name": "productCount",
          "type": "uint256"
        }
      ],
      "payable": false,
      "type": "function",
      "stateMutability": "view"
    },
    {
      "constant": false,
      "inputs": [],
      "name": "emergencyWithdrawal",
      "outputs": [
        {
          "name": "success",
          "type": "bool"
        }
      ],
      "payable": false,
      "type": "function",
      "stateMutability": "nonpayable"
    },
    {
      "constant": true,
      "inputs": [],
      "name": "paused",
      "outputs": [
        {
          "name": "",
          "type": "bool"
        }
      ],
      "payable": false,
      "type": "function",
      "stateMutability": "view"
    },
    {
      "constant": true,
      "inputs": [
        {
          "name": "_index",
          "type": "uint8"
        }
      ],
      "name": "getProductQuantityAtIndex",
      "outputs": [
        {
          "name": "quantity",
          "type": "uint256"
        }
      ],
      "payable": false,
      "type": "function",
      "stateMutability": "view"
    },
    {
      "constant": true,
      "inputs": [],
      "name": "owner",
      "outputs": [
        {
          "name": "",
          "type": "address"
        }
      ],
      "payable": false,
      "type": "function",
      "stateMutability": "view"
    },
    {
      "constant": true,
      "inputs": [
        {
          "name": "",
          "type": "address"
        }
      ],
      "name": "productsStruct",
      "outputs": [
        {
          "name": "product",
          "type": "address"
        },
        {
          "name": "index",
          "type": "uint256"
        },
        {
          "name": "name",
          "type": "bytes32"
        },
        {
          "name": "sku",
          "type": "bytes32"
        },
        {
          "name": "category",
          "type": "bytes32"
        },
        {
          "name": "price",
          "type": "uint256"
        },
        {
          "name": "quantity",
          "type": "uint256"
        },
        {
          "name": "image",
          "type": "bytes32"
        }
      ],
      "payable": false,
      "type": "function",
      "stateMutability": "view"
    },
    {
      "constant": true,
      "inputs": [
        {
          "name": "_index",
          "type": "uint8"
        }
      ],
      "name": "getProductAtIndex",
      "outputs": [
        {
          "name": "product",
          "type": "address"
        }
      ],
      "payable": false,
      "type": "function",
      "stateMutability": "view"
    },
    {
      "constant": false,
      "inputs": [
        {
          "name": "_product",
          "type": "address"
        },
        {
          "name": "_quantity",
          "type": "uint256"
        }
      ],
      "name": "addProduct",
      "outputs": [
        {
          "name": "success",
          "type": "bool"
        }
      ],
      "payable": false,
      "type": "function",
      "stateMutability": "nonpayable"
    },
    {
      "inputs": [
        {
          "name": "_shop",
          "type": "address"
        }
      ],
      "payable": false,
      "type": "constructor",
      "stateMutability": "nonpayable"
    },
    {
      "anonymous": false,
      "inputs": [
        {
          "indexed": true,
          "name": "who",
          "type": "address"
        },
        {
          "indexed": true,
          "name": "product",
          "type": "address"
        },
        {
          "indexed": false,
          "name": "quantity",
          "type": "uint256"
        }
      ],
      "name": "LogAddProduct",
      "type": "event"
    },
    {
      "anonymous": false,
      "inputs": [
        {
          "indexed": true,
          "name": "who",
          "type": "address"
        },
        {
          "indexed": true,
          "name": "product",
          "type": "address"
        },
        {
          "indexed": false,
          "name": "quantity",
          "type": "uint256"
        }
      ],
      "name": "LogRemoveProduct",
      "type": "event"
    },
    {
      "anonymous": false,
      "inputs": [
        {
          "indexed": true,
          "name": "who",
          "type": "address"
        },
        {
          "indexed": true,
          "name": "status",
          "type": "uint8"
        }
      ],
      "name": "LogSetStatus",
      "type": "event"
    },
    {
      "anonymous": false,
      "inputs": [
        {
          "indexed": true,
          "name": "who",
          "type": "address"
        }
      ],
      "name": "LogKill",
      "type": "event"
    },
    {
      "anonymous": false,
      "inputs": [
        {
          "indexed": true,
          "name": "who",
          "type": "address"
        },
        {
          "indexed": false,
          "name": "withdrawalAmount",
          "type": "uint256"
        }
      ],
      "name": "LogEmergencyWithdrawal",
      "type": "event"
    },
    {
      "anonymous": false,
      "inputs": [
        {
          "indexed": true,
          "name": "who",
          "type": "address"
        },
        {
          "indexed": true,
          "name": "paused",
          "type": "bool"
        }
      ],
      "name": "LogSetPaused",
      "type": "event"
    },
    {
      "anonymous": false,
      "inputs": [
        {
          "indexed": true,
          "name": "oldOwner",
          "type": "address"
        },
        {
          "indexed": true,
          "name": "newOwner",
          "type": "address"
        }
      ],
      "name": "LogSetOwner",
      "type": "event"
    }
  ],
  "bytecode": "0x6060604052341561000f57600080fd5b604051602080611d7f8339810160405280805190602001909190505080336000806101000a81548173ffffffffffffffffffffffffffffffffffffffff021916908373ffffffffffffffffffffffffffffffffffffffff160217905550600073ffffffffffffffffffffffffffffffffffffffff168173ffffffffffffffffffffffffffffffffffffffff16638da5cb5b6000604051602001526040518163ffffffff167c0100000000000000000000000000000000000000000000000000000000028152600401602060405180830381600087803b15156100f057600080fd5b6102c65a03f1151561010157600080fd5b5050506040518051905073ffffffffffffffffffffffffffffffffffffffff161415151561012e57600080fd5b80600360006101000a81548173ffffffffffffffffffffffffffffffffffffffff021916908373ffffffffffffffffffffffffffffffffffffffff1602179055505050611bff806101806000396000f300606060405260043610610107576000357c0100000000000000000000000000000000000000000000000000000000900463ffffffff1680630881fa0d1461010c57806313af40351461016157806316c38b3c146101b25780631a466190146101ef5780631f3a0e41146102495780631f8d1d5014610276578063200d2ed2146102b15780632ddbd13a146102e85780632e49d78b14610311578063322d5a331461034f57806341c0e1b5146103b25780634a348da9146103df5780635b0a3843146104085780635c975abb146104355780636197ce30146104625780638da5cb5b1461049c5780638dfda15a146104f1578063cba49e41146105bb578063d5c56c8614610621575b600080fd5b341561011757600080fd5b61011f61067b565b604051808273ffffffffffffffffffffffffffffffffffffffff1673ffffffffffffffffffffffffffffffffffffffff16815260200191505060405180910390f35b341561016c57600080fd5b610198600480803573ffffffffffffffffffffffffffffffffffffffff169060200190919050506106a1565b604051808215151515815260200191505060405180910390f35b34156101bd57600080fd5b6101d56004808035151590602001909190505061085a565b604051808215151515815260200191505060405180910390f35b34156101fa57600080fd5b61022f600480803573ffffffffffffffffffffffffffffffffffffffff16906020019091908035906020019091905050610963565b604051808215151515815260200191505060405180910390f35b341561025457600080fd5b61025c610d46565b604051808215151515815260200191505060405180910390f35b341561028157600080fd5b6102976004808035906020019091905050610d59565b604051808215151515815260200191505060405180910390f35b34156102bc57600080fd5b6102c4610d6b565b604051808260028111156102d457fe5b60ff16815260200191505060405180910390f35b34156102f357600080fd5b6102fb610d7e565b6040518082815260200191505060405180910390f35b341561031c57600080fd5b610335600480803560ff16906020019091905050610d84565b604051808215151515815260200191505060405180910390f35b341561035a57600080fd5b6103706004808035906020019091905050610db2565b604051808273ffffffffffffffffffffffffffffffffffffffff1673ffffffffffffffffffffffffffffffffffffffff16815260200191505060405180910390f35b34156103bd57600080fd5b6103c5610df1565b604051808215151515815260200191505060405180910390f35b34156103ea57600080fd5b6103f2610e33565b6040518082815260200191505060405180910390f35b341561041357600080fd5b61041b610e40565b604051808215151515815260200191505060405180910390f35b341561044057600080fd5b610448610f8d565b604051808215151515815260200191505060405180910390f35b341561046d57600080fd5b610486600480803560ff16906020019091905050610fa0565b6040518082815260200191505060405180910390f35b34156104a757600080fd5b6104af611029565b604051808273ffffffffffffffffffffffffffffffffffffffff1673ffffffffffffffffffffffffffffffffffffffff16815260200191505060405180910390f35b34156104fc57600080fd5b610528600480803573ffffffffffffffffffffffffffffffffffffffff1690602001909190505061104e565b604051808973ffffffffffffffffffffffffffffffffffffffff1673ffffffffffffffffffffffffffffffffffffffff16815260200188815260200187600019166000191681526020018660001916600019168152602001856000191660001916815260200184815260200183815260200182600019166000191681526020019850505050505050505060405180910390f35b34156105c657600080fd5b6105df600480803560ff169060200190919050506110b6565b604051808273ffffffffffffffffffffffffffffffffffffffff1673ffffffffffffffffffffffffffffffffffffffff16815260200191505060405180910390f35b341561062c57600080fd5b610661600480803573ffffffffffffffffffffffffffffffffffffffff1690602001909190803590602001909190505061115f565b604051808215151515815260200191505060405180910390f35b600360009054906101000a900473ffffffffffffffffffffffffffffffffffffffff1681565b60008060009054906101000a900473ffffffffffffffffffffffffffffffffffffffff1673ffffffffffffffffffffffffffffffffffffffff163373ffffffffffffffffffffffffffffffffffffffff161415156106fe57600080fd5b600073ffffffffffffffffffffffffffffffffffffffff168273ffffffffffffffffffffffffffffffffffffffff161415151561073a57600080fd5b6000809054906101000a900473ffffffffffffffffffffffffffffffffffffffff1673ffffffffffffffffffffffffffffffffffffffff168273ffffffffffffffffffffffffffffffffffffffff161415151561079657600080fd5b8173ffffffffffffffffffffffffffffffffffffffff166000809054906101000a900473ffffffffffffffffffffffffffffffffffffffff1673ffffffffffffffffffffffffffffffffffffffff167fc66d1d23a5b7baf1f496bb19f580d7b12070ad5a08a758c990db97d961fa33a660405160405180910390a3816000806101000a81548173ffffffffffffffffffffffffffffffffffffffff021916908373ffffffffffffffffffffffffffffffffffffffff16021790555060019050919050565b60008060009054906101000a900473ffffffffffffffffffffffffffffffffffffffff1673ffffffffffffffffffffffffffffffffffffffff163373ffffffffffffffffffffffffffffffffffffffff161415156108b757600080fd5b600060149054906101000a900460ff161515821515141515156108d957600080fd5b81600060146101000a81548160ff0219169083151502179055508115156000809054906101000a900473ffffffffffffffffffffffffffffffffffffffff1673ffffffffffffffffffffffffffffffffffffffff167f271ac239d392431f17dea7ef0a13e9a6784ca02b0ce5d00a400c0490f17fecd760405160405180910390a360019050919050565b60008060008060009054906101000a900473ffffffffffffffffffffffffffffffffffffffff1673ffffffffffffffffffffffffffffffffffffffff163373ffffffffffffffffffffffffffffffffffffffff161415156109c357600080fd5b600060028111156109d057fe5b600360149054906101000a900460ff1660028111156109eb57fe5b1415156109f757600080fd5b600073ffffffffffffffffffffffffffffffffffffffff16600160008773ffffffffffffffffffffffffffffffffffffffff1673ffffffffffffffffffffffffffffffffffffffff16815260200190815260200160002060000160009054906101000a900473ffffffffffffffffffffffffffffffffffffffff1673ffffffffffffffffffffffffffffffffffffffff1614151515610a9557600080fd5b600160008673ffffffffffffffffffffffffffffffffffffffff1673ffffffffffffffffffffffffffffffffffffffff1681526020019081526020016000206006015484101580610ae65750600084145b15610c3157600160008673ffffffffffffffffffffffffffffffffffffffff1673ffffffffffffffffffffffffffffffffffffffff1681526020019081526020016000206001015491506002600160028054905003815481101515610b4757fe5b906000526020600020900160009054906101000a900473ffffffffffffffffffffffffffffffffffffffff16905080600283815481101515610b8557fe5b906000526020600020900160006101000a81548173ffffffffffffffffffffffffffffffffffffffff021916908373ffffffffffffffffffffffffffffffffffffffff16021790555081600160008373ffffffffffffffffffffffffffffffffffffffff1673ffffffffffffffffffffffffffffffffffffffff16815260200190815260200160002060010181905550600160028054905003600281610c2b9190611b56565b50610cd5565b600084600160008873ffffffffffffffffffffffffffffffffffffffff1673ffffffffffffffffffffffffffffffffffffffff1681526020019081526020016000206006015403111515610c8457600080fd5b83600160008773ffffffffffffffffffffffffffffffffffffffff1673ffffffffffffffffffffffffffffffffffffffff168152602001908152602001600020600601600082825403925050819055505b8473ffffffffffffffffffffffffffffffffffffffff163373ffffffffffffffffffffffffffffffffffffffff167fb9f69523315b94b09ffbb010a84a34db034613b3ab7d05369fa12194a6d4998f866040518082815260200191505060405180910390a360019250505092915050565b600060159054906101000a900460ff1681565b60008160048190555060019050919050565b600360149054906101000a900460ff1681565b60045481565b600081600360146101000a81548160ff02191690836002811115610da457fe5b021790555060019050919050565b600281815481101515610dc157fe5b90600052602060002090016000915054906101000a900473ffffffffffffffffffffffffffffffffffffffff1681565b6000806002811115610dff57fe5b600360149054906101000a900460ff166002811115610e1a57fe5b141515610e2657600080fd5b610e2e611a5d565b905090565b6000600280549050905090565b60008060009054906101000a900473ffffffffffffffffffffffffffffffffffffffff1673ffffffffffffffffffffffffffffffffffffffff163373ffffffffffffffffffffffffffffffffffffffff16141515610e9d57600080fd5b600060159054906101000a900460ff161515610eb857600080fd5b3373ffffffffffffffffffffffffffffffffffffffff167f88cfe71ce7f29d85a8667d1457b17ced3748124d76866a6ef65bc53f928001da3073ffffffffffffffffffffffffffffffffffffffff16316040518082815260200191505060405180910390a23373ffffffffffffffffffffffffffffffffffffffff166108fc3073ffffffffffffffffffffffffffffffffffffffff16319081150290604051600060405180830381858888f193505050501515610f7457600080fd5b3373ffffffffffffffffffffffffffffffffffffffff16ff5b600060149054906101000a900460ff1681565b60006001600060028460ff16815481101515610fb857fe5b906000526020600020900160009054906101000a900473ffffffffffffffffffffffffffffffffffffffff1673ffffffffffffffffffffffffffffffffffffffff1673ffffffffffffffffffffffffffffffffffffffff168152602001908152602001600020600601549050919050565b6000809054906101000a900473ffffffffffffffffffffffffffffffffffffffff1681565b60016020528060005260406000206000915090508060000160009054906101000a900473ffffffffffffffffffffffffffffffffffffffff16908060010154908060020154908060030154908060040154908060050154908060060154908060070154905088565b60006001600060028460ff168154811015156110ce57fe5b906000526020600020900160009054906101000a900473ffffffffffffffffffffffffffffffffffffffff1673ffffffffffffffffffffffffffffffffffffffff1673ffffffffffffffffffffffffffffffffffffffff16815260200190815260200160002060000160009054906101000a900473ffffffffffffffffffffffffffffffffffffffff169050919050565b60008060008060008060009054906101000a900473ffffffffffffffffffffffffffffffffffffffff1673ffffffffffffffffffffffffffffffffffffffff163373ffffffffffffffffffffffffffffffffffffffff161415156111c257600080fd5b600060028111156111cf57fe5b600360149054906101000a900460ff1660028111156111ea57fe5b1415156111f657600080fd5b600073ffffffffffffffffffffffffffffffffffffffff168773ffffffffffffffffffffffffffffffffffffffff161415151561123257600080fd5b60008611151561124157600080fd5b8693508373ffffffffffffffffffffffffffffffffffffffff1663bdf3c4ae6000604051602001526040518163ffffffff167c0100000000000000000000000000000000000000000000000000000000028152600401602060405180830381600087803b15156112b057600080fd5b6102c65a03f115156112c157600080fd5b5050506040518051905092508373ffffffffffffffffffffffffffffffffffffffff1663a035b1fe6000604051602001526040518163ffffffff167c0100000000000000000000000000000000000000000000000000000000028152600401602060405180830381600087803b151561133957600080fd5b6102c65a03f1151561134a57600080fd5b50505060405180519050915085831015151561136557600080fd5b8582029050600454600454820111151561137e57600080fd5b80600460008282540192505081905550600073ffffffffffffffffffffffffffffffffffffffff16600160008673ffffffffffffffffffffffffffffffffffffffff1673ffffffffffffffffffffffffffffffffffffffff16815260200190815260200160002060000160009054906101000a900473ffffffffffffffffffffffffffffffffffffffff1673ffffffffffffffffffffffffffffffffffffffff161415156114cd578286600160008773ffffffffffffffffffffffffffffffffffffffff1673ffffffffffffffffffffffffffffffffffffffff168152602001908152602001600020600601540110151561147857600080fd5b85600160008673ffffffffffffffffffffffffffffffffffffffff1673ffffffffffffffffffffffffffffffffffffffff168152602001908152602001600020600601600082825401925050819055506119ea565b600a6001600280549050011015156114e457600080fd5b600280548060010182816114f89190611b82565b9160005260206000209001600086909190916101000a81548173ffffffffffffffffffffffffffffffffffffffff021916908373ffffffffffffffffffffffffffffffffffffffff1602179055505083600160008673ffffffffffffffffffffffffffffffffffffffff1673ffffffffffffffffffffffffffffffffffffffff16815260200190815260200160002060000160006101000a81548173ffffffffffffffffffffffffffffffffffffffff021916908373ffffffffffffffffffffffffffffffffffffffff160217905550600160028054905003600160008673ffffffffffffffffffffffffffffffffffffffff1673ffffffffffffffffffffffffffffffffffffffff168152602001908152602001600020600101819055508373ffffffffffffffffffffffffffffffffffffffff166306fdde036000604051602001526040518163ffffffff167c0100000000000000000000000000000000000000000000000000000000028152600401602060405180830381600087803b151561168357600080fd5b6102c65a03f1151561169457600080fd5b50505060405180519050600160008673ffffffffffffffffffffffffffffffffffffffff1673ffffffffffffffffffffffffffffffffffffffff16815260200190815260200160002060020181600019169055508373ffffffffffffffffffffffffffffffffffffffff16634462f40c6000604051602001526040518163ffffffff167c0100000000000000000000000000000000000000000000000000000000028152600401602060405180830381600087803b151561175457600080fd5b6102c65a03f1151561176557600080fd5b50505060405180519050600160008673ffffffffffffffffffffffffffffffffffffffff1673ffffffffffffffffffffffffffffffffffffffff16815260200190815260200160002060030181600019169055508373ffffffffffffffffffffffffffffffffffffffff1663ef430aa66000604051602001526040518163ffffffff167c0100000000000000000000000000000000000000000000000000000000028152600401602060405180830381600087803b151561182557600080fd5b6102c65a03f1151561183657600080fd5b50505060405180519050600160008673ffffffffffffffffffffffffffffffffffffffff1673ffffffffffffffffffffffffffffffffffffffff168152602001908152602001600020600401816000191690555081600160008673ffffffffffffffffffffffffffffffffffffffff1673ffffffffffffffffffffffffffffffffffffffff1681526020019081526020016000206005018190555085600160008673ffffffffffffffffffffffffffffffffffffffff1673ffffffffffffffffffffffffffffffffffffffff168152602001908152602001600020600601819055508373ffffffffffffffffffffffffffffffffffffffff1663f3ccaac06000604051602001526040518163ffffffff167c0100000000000000000000000000000000000000000000000000000000028152600401602060405180830381600087803b151561198457600080fd5b6102c65a03f1151561199557600080fd5b50505060405180519050600160008673ffffffffffffffffffffffffffffffffffffffff1673ffffffffffffffffffffffffffffffffffffffff16815260200190815260200160002060070181600019169055505b8673ffffffffffffffffffffffffffffffffffffffff163373ffffffffffffffffffffffffffffffffffffffff167f6853b2e48d910ba1e034828f2cf1fe3ce6811120e7d7cbf3310152f472b7c985886040518082815260200191505060405180910390a3600194505050505092915050565b60008060009054906101000a900473ffffffffffffffffffffffffffffffffffffffff1673ffffffffffffffffffffffffffffffffffffffff163373ffffffffffffffffffffffffffffffffffffffff16141515611aba57600080fd5b600060149054906101000a900460ff161515611ad557600080fd5b600060159054906101000a900460ff16151515611af157600080fd5b6001600060156101000a81548160ff0219169083151502179055503373ffffffffffffffffffffffffffffffffffffffff167f7cd531232cf2a935531a2059a1021ee56cecce23e6f421cfa5cb1043fe101ab860405160405180910390a26001905090565b815481835581811511611b7d57818360005260206000209182019101611b7c9190611bae565b5b505050565b815481835581811511611ba957818360005260206000209182019101611ba89190611bae565b5b505050565b611bd091905b80821115611bcc576000816000905550600101611bb4565b5090565b905600a165627a7a723058204d8c6bf8db5ccb6e6ff18f836d39943270552c72799106ac62d296914f71eeae0029",
  "source": "pragma solidity 0.4.18;\r\n\r\nimport \"./Order.sol\";\r\n\r\n/* DO NOT USE IN PRODUCTUCTION, only for tests */\r\ncontract UnsafeOrder is Order {\r\n\r\n    function UnsafeOrder(Shop _shop) Order(_shop) {}\r\n\r\n    function setStatus(OrderStatus _status) \r\n        public\r\n        returns(bool success)\r\n    {\r\n        status = _status;\r\n        return true;\r\n    }\r\n\r\n    function setTotal(uint _total) \r\n        public\r\n        returns(bool success)\r\n    {\r\n        total = _total;\r\n        return true;\r\n    }\r\n}",
  "sourcePath": "F:\\DAPPS\\shop\\contracts\\UnsafeOrder.sol",
  "compiler": {
    "name": "solc",
    "version": "0.4.18+commit.9cf6e910.Emscripten.clang"
  },
  "schemaVersion": "1.0.1",
  "updatedAt": "2017-11-18T12:08:49.680Z"
}