{
  "contractName": "Order",
  "abi": [
    {
      "constant": true,
      "inputs": [],
      "name": "shop",
      "outputs": [
        {
          "name": "",
          "type": "address"
        }
      ],
      "payable": false,
      "type": "function",
      "stateMutability": "view"
    },
    {
      "constant": false,
      "inputs": [
        {
          "name": "newOwner",
          "type": "address"
        }
      ],
      "name": "setOwner",
      "outputs": [
        {
          "name": "success",
          "type": "bool"
        }
      ],
      "payable": false,
      "type": "function",
      "stateMutability": "nonpayable"
    },
    {
      "constant": false,
      "inputs": [
        {
          "name": "newPaused",
          "type": "bool"
        }
      ],
      "name": "setPaused",
      "outputs": [
        {
          "name": "success",
          "type": "bool"
        }
      ],
      "payable": false,
      "type": "function",
      "stateMutability": "nonpayable"
    },
    {
      "constant": false,
      "inputs": [
        {
          "name": "_product",
          "type": "address"
        },
        {
          "name": "_quantity",
          "type": "uint256"
        }
      ],
      "name": "removeProduct",
      "outputs": [
        {
          "name": "success",
          "type": "bool"
        }
      ],
      "payable": false,
      "type": "function",
      "stateMutability": "nonpayable"
    },
    {
      "constant": true,
      "inputs": [],
      "name": "killed",
      "outputs": [
        {
          "name": "",
          "type": "bool"
        }
      ],
      "payable": false,
      "type": "function",
      "stateMutability": "view"
    },
    {
      "constant": true,
      "inputs": [],
      "name": "status",
      "outputs": [
        {
          "name": "",
          "type": "uint8"
        }
      ],
      "payable": false,
      "type": "function",
      "stateMutability": "view"
    },
    {
      "constant": true,
      "inputs": [],
      "name": "total",
      "outputs": [
        {
          "name": "",
          "type": "uint256"
        }
      ],
      "payable": false,
      "type": "function",
      "stateMutability": "view"
    },
    {
      "constant": false,
      "inputs": [
        {
          "name": "_status",
          "type": "uint8"
        }
      ],
      "name": "setStatus",
      "outputs": [
        {
          "name": "success",
          "type": "bool"
        }
      ],
      "payable": false,
      "type": "function",
      "stateMutability": "nonpayable"
    },
    {
      "constant": true,
      "inputs": [
        {
          "name": "",
          "type": "uint256"
        }
      ],
      "name": "productIndex",
      "outputs": [
        {
          "name": "",
          "type": "address"
        }
      ],
      "payable": false,
      "type": "function",
      "stateMutability": "view"
    },
    {
      "constant": false,
      "inputs": [],
      "name": "kill",
      "outputs": [
        {
          "name": "success",
          "type": "bool"
        }
      ],
      "payable": false,
      "type": "function",
      "stateMutability": "nonpayable"
    },
    {
      "constant": true,
      "inputs": [],
      "name": "getProductCount",
      "outputs": [
        {
          "name": "productCount",
          "type": "uint256"
        }
      ],
      "payable": false,
      "type": "function",
      "stateMutability": "view"
    },
    {
      "constant": false,
      "inputs": [],
      "name": "emergencyWithdrawal",
      "outputs": [
        {
          "name": "success",
          "type": "bool"
        }
      ],
      "payable": false,
      "type": "function",
      "stateMutability": "nonpayable"
    },
    {
      "constant": true,
      "inputs": [],
      "name": "paused",
      "outputs": [
        {
          "name": "",
          "type": "bool"
        }
      ],
      "payable": false,
      "type": "function",
      "stateMutability": "view"
    },
    {
      "constant": true,
      "inputs": [
        {
          "name": "_index",
          "type": "uint8"
        }
      ],
      "name": "getProductQuantityAtIndex",
      "outputs": [
        {
          "name": "quantity",
          "type": "uint256"
        }
      ],
      "payable": false,
      "type": "function",
      "stateMutability": "view"
    },
    {
      "constant": true,
      "inputs": [],
      "name": "owner",
      "outputs": [
        {
          "name": "",
          "type": "address"
        }
      ],
      "payable": false,
      "type": "function",
      "stateMutability": "view"
    },
    {
      "constant": true,
      "inputs": [
        {
          "name": "",
          "type": "address"
        }
      ],
      "name": "productsStruct",
      "outputs": [
        {
          "name": "product",
          "type": "address"
        },
        {
          "name": "index",
          "type": "uint256"
        },
        {
          "name": "name",
          "type": "bytes32"
        },
        {
          "name": "sku",
          "type": "bytes32"
        },
        {
          "name": "category",
          "type": "bytes32"
        },
        {
          "name": "price",
          "type": "uint256"
        },
        {
          "name": "quantity",
          "type": "uint256"
        },
        {
          "name": "image",
          "type": "bytes32"
        }
      ],
      "payable": false,
      "type": "function",
      "stateMutability": "view"
    },
    {
      "constant": true,
      "inputs": [
        {
          "name": "_index",
          "type": "uint8"
        }
      ],
      "name": "getProductAtIndex",
      "outputs": [
        {
          "name": "product",
          "type": "address"
        }
      ],
      "payable": false,
      "type": "function",
      "stateMutability": "view"
    },
    {
      "constant": false,
      "inputs": [
        {
          "name": "_product",
          "type": "address"
        },
        {
          "name": "_quantity",
          "type": "uint256"
        }
      ],
      "name": "addProduct",
      "outputs": [
        {
          "name": "success",
          "type": "bool"
        }
      ],
      "payable": false,
      "type": "function",
      "stateMutability": "nonpayable"
    },
    {
      "inputs": [
        {
          "name": "_shop",
          "type": "address"
        }
      ],
      "payable": false,
      "type": "constructor",
      "stateMutability": "nonpayable"
    },
    {
      "anonymous": false,
      "inputs": [
        {
          "indexed": true,
          "name": "who",
          "type": "address"
        },
        {
          "indexed": true,
          "name": "product",
          "type": "address"
        },
        {
          "indexed": false,
          "name": "quantity",
          "type": "uint256"
        }
      ],
      "name": "LogAddProduct",
      "type": "event"
    },
    {
      "anonymous": false,
      "inputs": [
        {
          "indexed": true,
          "name": "who",
          "type": "address"
        },
        {
          "indexed": true,
          "name": "product",
          "type": "address"
        },
        {
          "indexed": false,
          "name": "quantity",
          "type": "uint256"
        }
      ],
      "name": "LogRemoveProduct",
      "type": "event"
    },
    {
      "anonymous": false,
      "inputs": [
        {
          "indexed": true,
          "name": "who",
          "type": "address"
        },
        {
          "indexed": true,
          "name": "status",
          "type": "uint8"
        }
      ],
      "name": "LogSetStatus",
      "type": "event"
    },
    {
      "anonymous": false,
      "inputs": [
        {
          "indexed": true,
          "name": "who",
          "type": "address"
        }
      ],
      "name": "LogKill",
      "type": "event"
    },
    {
      "anonymous": false,
      "inputs": [
        {
          "indexed": true,
          "name": "who",
          "type": "address"
        },
        {
          "indexed": false,
          "name": "withdrawalAmount",
          "type": "uint256"
        }
      ],
      "name": "LogEmergencyWithdrawal",
      "type": "event"
    },
    {
      "anonymous": false,
      "inputs": [
        {
          "indexed": true,
          "name": "who",
          "type": "address"
        },
        {
          "indexed": true,
          "name": "paused",
          "type": "bool"
        }
      ],
      "name": "LogSetPaused",
      "type": "event"
    },
    {
      "anonymous": false,
      "inputs": [
        {
          "indexed": true,
          "name": "oldOwner",
          "type": "address"
        },
        {
          "indexed": true,
          "name": "newOwner",
          "type": "address"
        }
      ],
      "name": "LogSetOwner",
      "type": "event"
    }
  ],
  "bytecode": "0x6060604052341561000f57600080fd5b604051602080611dd083398101604052808051906020019091905050336000806101000a81548173ffffffffffffffffffffffffffffffffffffffff021916908373ffffffffffffffffffffffffffffffffffffffff160217905550600073ffffffffffffffffffffffffffffffffffffffff168173ffffffffffffffffffffffffffffffffffffffff16638da5cb5b6000604051602001526040518163ffffffff167c0100000000000000000000000000000000000000000000000000000000028152600401602060405180830381600087803b15156100ef57600080fd5b6102c65a03f1151561010057600080fd5b5050506040518051905073ffffffffffffffffffffffffffffffffffffffff161415151561012d57600080fd5b80600360006101000a81548173ffffffffffffffffffffffffffffffffffffffff021916908373ffffffffffffffffffffffffffffffffffffffff16021790555050611c528061017e6000396000f3006060604052600436106100fc576000357c0100000000000000000000000000000000000000000000000000000000900463ffffffff1680630881fa0d1461010157806313af40351461015657806316c38b3c146101a75780631a466190146101e45780631f3a0e411461023e578063200d2ed21461026b5780632ddbd13a146102a25780632e49d78b146102cb578063322d5a331461030957806341c0e1b51461036c5780634a348da9146103995780635b0a3843146103c25780635c975abb146103ef5780636197ce301461041c5780638da5cb5b146104565780638dfda15a146104ab578063cba49e4114610575578063d5c56c86146105db575b600080fd5b341561010c57600080fd5b610114610635565b604051808273ffffffffffffffffffffffffffffffffffffffff1673ffffffffffffffffffffffffffffffffffffffff16815260200191505060405180910390f35b341561016157600080fd5b61018d600480803573ffffffffffffffffffffffffffffffffffffffff1690602001909190505061065b565b604051808215151515815260200191505060405180910390f35b34156101b257600080fd5b6101ca60048080351515906020019091905050610814565b604051808215151515815260200191505060405180910390f35b34156101ef57600080fd5b610224600480803573ffffffffffffffffffffffffffffffffffffffff1690602001909190803590602001909190505061091d565b604051808215151515815260200191505060405180910390f35b341561024957600080fd5b610251610d00565b604051808215151515815260200191505060405180910390f35b341561027657600080fd5b61027e610d13565b6040518082600281111561028e57fe5b60ff16815260200191505060405180910390f35b34156102ad57600080fd5b6102b5610d26565b6040518082815260200191505060405180910390f35b34156102d657600080fd5b6102ef600480803560ff16906020019091905050610d2c565b604051808215151515815260200191505060405180910390f35b341561031457600080fd5b61032a6004808035906020019091905050610e05565b604051808273ffffffffffffffffffffffffffffffffffffffff1673ffffffffffffffffffffffffffffffffffffffff16815260200191505060405180910390f35b341561037757600080fd5b61037f610e44565b604051808215151515815260200191505060405180910390f35b34156103a457600080fd5b6103ac610e86565b6040518082815260200191505060405180910390f35b34156103cd57600080fd5b6103d5610e93565b604051808215151515815260200191505060405180910390f35b34156103fa57600080fd5b610402610fe0565b604051808215151515815260200191505060405180910390f35b341561042757600080fd5b610440600480803560ff16906020019091905050610ff3565b6040518082815260200191505060405180910390f35b341561046157600080fd5b61046961107c565b604051808273ffffffffffffffffffffffffffffffffffffffff1673ffffffffffffffffffffffffffffffffffffffff16815260200191505060405180910390f35b34156104b657600080fd5b6104e2600480803573ffffffffffffffffffffffffffffffffffffffff169060200190919050506110a1565b604051808973ffffffffffffffffffffffffffffffffffffffff1673ffffffffffffffffffffffffffffffffffffffff16815260200188815260200187600019166000191681526020018660001916600019168152602001856000191660001916815260200184815260200183815260200182600019166000191681526020019850505050505050505060405180910390f35b341561058057600080fd5b610599600480803560ff16906020019091905050611109565b604051808273ffffffffffffffffffffffffffffffffffffffff1673ffffffffffffffffffffffffffffffffffffffff16815260200191505060405180910390f35b34156105e657600080fd5b61061b600480803573ffffffffffffffffffffffffffffffffffffffff169060200190919080359060200190919050506111b2565b604051808215151515815260200191505060405180910390f35b600360009054906101000a900473ffffffffffffffffffffffffffffffffffffffff1681565b60008060009054906101000a900473ffffffffffffffffffffffffffffffffffffffff1673ffffffffffffffffffffffffffffffffffffffff163373ffffffffffffffffffffffffffffffffffffffff161415156106b857600080fd5b600073ffffffffffffffffffffffffffffffffffffffff168273ffffffffffffffffffffffffffffffffffffffff16141515156106f457600080fd5b6000809054906101000a900473ffffffffffffffffffffffffffffffffffffffff1673ffffffffffffffffffffffffffffffffffffffff168273ffffffffffffffffffffffffffffffffffffffff161415151561075057600080fd5b8173ffffffffffffffffffffffffffffffffffffffff166000809054906101000a900473ffffffffffffffffffffffffffffffffffffffff1673ffffffffffffffffffffffffffffffffffffffff167fc66d1d23a5b7baf1f496bb19f580d7b12070ad5a08a758c990db97d961fa33a660405160405180910390a3816000806101000a81548173ffffffffffffffffffffffffffffffffffffffff021916908373ffffffffffffffffffffffffffffffffffffffff16021790555060019050919050565b60008060009054906101000a900473ffffffffffffffffffffffffffffffffffffffff1673ffffffffffffffffffffffffffffffffffffffff163373ffffffffffffffffffffffffffffffffffffffff1614151561087157600080fd5b600060149054906101000a900460ff1615158215151415151561089357600080fd5b81600060146101000a81548160ff0219169083151502179055508115156000809054906101000a900473ffffffffffffffffffffffffffffffffffffffff1673ffffffffffffffffffffffffffffffffffffffff167f271ac239d392431f17dea7ef0a13e9a6784ca02b0ce5d00a400c0490f17fecd760405160405180910390a360019050919050565b60008060008060009054906101000a900473ffffffffffffffffffffffffffffffffffffffff1673ffffffffffffffffffffffffffffffffffffffff163373ffffffffffffffffffffffffffffffffffffffff1614151561097d57600080fd5b6000600281111561098a57fe5b600360149054906101000a900460ff1660028111156109a557fe5b1415156109b157600080fd5b600073ffffffffffffffffffffffffffffffffffffffff16600160008773ffffffffffffffffffffffffffffffffffffffff1673ffffffffffffffffffffffffffffffffffffffff16815260200190815260200160002060000160009054906101000a900473ffffffffffffffffffffffffffffffffffffffff1673ffffffffffffffffffffffffffffffffffffffff1614151515610a4f57600080fd5b600160008673ffffffffffffffffffffffffffffffffffffffff1673ffffffffffffffffffffffffffffffffffffffff1681526020019081526020016000206006015484101580610aa05750600084145b15610beb57600160008673ffffffffffffffffffffffffffffffffffffffff1673ffffffffffffffffffffffffffffffffffffffff1681526020019081526020016000206001015491506002600160028054905003815481101515610b0157fe5b906000526020600020900160009054906101000a900473ffffffffffffffffffffffffffffffffffffffff16905080600283815481101515610b3f57fe5b906000526020600020900160006101000a81548173ffffffffffffffffffffffffffffffffffffffff021916908373ffffffffffffffffffffffffffffffffffffffff16021790555081600160008373ffffffffffffffffffffffffffffffffffffffff1673ffffffffffffffffffffffffffffffffffffffff16815260200190815260200160002060010181905550600160028054905003600281610be59190611ba9565b50610c8f565b600084600160008873ffffffffffffffffffffffffffffffffffffffff1673ffffffffffffffffffffffffffffffffffffffff1681526020019081526020016000206006015403111515610c3e57600080fd5b83600160008773ffffffffffffffffffffffffffffffffffffffff1673ffffffffffffffffffffffffffffffffffffffff168152602001908152602001600020600601600082825403925050819055505b8473ffffffffffffffffffffffffffffffffffffffff163373ffffffffffffffffffffffffffffffffffffffff167fb9f69523315b94b09ffbb010a84a34db034613b3ab7d05369fa12194a6d4998f866040518082815260200191505060405180910390a360019250505092915050565b600060159054906101000a900460ff1681565b600360149054906101000a900460ff1681565b60045481565b6000600360009054906101000a900473ffffffffffffffffffffffffffffffffffffffff1673ffffffffffffffffffffffffffffffffffffffff163373ffffffffffffffffffffffffffffffffffffffff16141515610d8a57600080fd5b81600360146101000a81548160ff02191690836002811115610da857fe5b0217905550816002811115610db957fe5b3373ffffffffffffffffffffffffffffffffffffffff167ff35807e2e6d976dafda4b5613c4cb6c399e4e81badbcccc749a5905a49e6bd4160405160405180910390a360019050919050565b600281815481101515610e1457fe5b90600052602060002090016000915054906101000a900473ffffffffffffffffffffffffffffffffffffffff1681565b6000806002811115610e5257fe5b600360149054906101000a900460ff166002811115610e6d57fe5b141515610e7957600080fd5b610e81611ab0565b905090565b6000600280549050905090565b60008060009054906101000a900473ffffffffffffffffffffffffffffffffffffffff1673ffffffffffffffffffffffffffffffffffffffff163373ffffffffffffffffffffffffffffffffffffffff16141515610ef057600080fd5b600060159054906101000a900460ff161515610f0b57600080fd5b3373ffffffffffffffffffffffffffffffffffffffff167f88cfe71ce7f29d85a8667d1457b17ced3748124d76866a6ef65bc53f928001da3073ffffffffffffffffffffffffffffffffffffffff16316040518082815260200191505060405180910390a23373ffffffffffffffffffffffffffffffffffffffff166108fc3073ffffffffffffffffffffffffffffffffffffffff16319081150290604051600060405180830381858888f193505050501515610fc757600080fd5b3373ffffffffffffffffffffffffffffffffffffffff16ff5b600060149054906101000a900460ff1681565b60006001600060028460ff1681548110151561100b57fe5b906000526020600020900160009054906101000a900473ffffffffffffffffffffffffffffffffffffffff1673ffffffffffffffffffffffffffffffffffffffff1673ffffffffffffffffffffffffffffffffffffffff168152602001908152602001600020600601549050919050565b6000809054906101000a900473ffffffffffffffffffffffffffffffffffffffff1681565b60016020528060005260406000206000915090508060000160009054906101000a900473ffffffffffffffffffffffffffffffffffffffff16908060010154908060020154908060030154908060040154908060050154908060060154908060070154905088565b60006001600060028460ff1681548110151561112157fe5b906000526020600020900160009054906101000a900473ffffffffffffffffffffffffffffffffffffffff1673ffffffffffffffffffffffffffffffffffffffff1673ffffffffffffffffffffffffffffffffffffffff16815260200190815260200160002060000160009054906101000a900473ffffffffffffffffffffffffffffffffffffffff169050919050565b60008060008060008060009054906101000a900473ffffffffffffffffffffffffffffffffffffffff1673ffffffffffffffffffffffffffffffffffffffff163373ffffffffffffffffffffffffffffffffffffffff1614151561121557600080fd5b6000600281111561122257fe5b600360149054906101000a900460ff16600281111561123d57fe5b14151561124957600080fd5b600073ffffffffffffffffffffffffffffffffffffffff168773ffffffffffffffffffffffffffffffffffffffff161415151561128557600080fd5b60008611151561129457600080fd5b8693508373ffffffffffffffffffffffffffffffffffffffff1663bdf3c4ae6000604051602001526040518163ffffffff167c0100000000000000000000000000000000000000000000000000000000028152600401602060405180830381600087803b151561130357600080fd5b6102c65a03f1151561131457600080fd5b5050506040518051905092508373ffffffffffffffffffffffffffffffffffffffff1663a035b1fe6000604051602001526040518163ffffffff167c0100000000000000000000000000000000000000000000000000000000028152600401602060405180830381600087803b151561138c57600080fd5b6102c65a03f1151561139d57600080fd5b5050506040518051905091508583101515156113b857600080fd5b858202905060045460045482011115156113d157600080fd5b80600460008282540192505081905550600073ffffffffffffffffffffffffffffffffffffffff16600160008673ffffffffffffffffffffffffffffffffffffffff1673ffffffffffffffffffffffffffffffffffffffff16815260200190815260200160002060000160009054906101000a900473ffffffffffffffffffffffffffffffffffffffff1673ffffffffffffffffffffffffffffffffffffffff16141515611520578286600160008773ffffffffffffffffffffffffffffffffffffffff1673ffffffffffffffffffffffffffffffffffffffff16815260200190815260200160002060060154011015156114cb57600080fd5b85600160008673ffffffffffffffffffffffffffffffffffffffff1673ffffffffffffffffffffffffffffffffffffffff16815260200190815260200160002060060160008282540192505081905550611a3d565b600a60016002805490500110151561153757600080fd5b6002805480600101828161154b9190611bd5565b9160005260206000209001600086909190916101000a81548173ffffffffffffffffffffffffffffffffffffffff021916908373ffffffffffffffffffffffffffffffffffffffff1602179055505083600160008673ffffffffffffffffffffffffffffffffffffffff1673ffffffffffffffffffffffffffffffffffffffff16815260200190815260200160002060000160006101000a81548173ffffffffffffffffffffffffffffffffffffffff021916908373ffffffffffffffffffffffffffffffffffffffff160217905550600160028054905003600160008673ffffffffffffffffffffffffffffffffffffffff1673ffffffffffffffffffffffffffffffffffffffff168152602001908152602001600020600101819055508373ffffffffffffffffffffffffffffffffffffffff166306fdde036000604051602001526040518163ffffffff167c0100000000000000000000000000000000000000000000000000000000028152600401602060405180830381600087803b15156116d657600080fd5b6102c65a03f115156116e757600080fd5b50505060405180519050600160008673ffffffffffffffffffffffffffffffffffffffff1673ffffffffffffffffffffffffffffffffffffffff16815260200190815260200160002060020181600019169055508373ffffffffffffffffffffffffffffffffffffffff16634462f40c6000604051602001526040518163ffffffff167c0100000000000000000000000000000000000000000000000000000000028152600401602060405180830381600087803b15156117a757600080fd5b6102c65a03f115156117b857600080fd5b50505060405180519050600160008673ffffffffffffffffffffffffffffffffffffffff1673ffffffffffffffffffffffffffffffffffffffff16815260200190815260200160002060030181600019169055508373ffffffffffffffffffffffffffffffffffffffff1663ef430aa66000604051602001526040518163ffffffff167c0100000000000000000000000000000000000000000000000000000000028152600401602060405180830381600087803b151561187857600080fd5b6102c65a03f1151561188957600080fd5b50505060405180519050600160008673ffffffffffffffffffffffffffffffffffffffff1673ffffffffffffffffffffffffffffffffffffffff168152602001908152602001600020600401816000191690555081600160008673ffffffffffffffffffffffffffffffffffffffff1673ffffffffffffffffffffffffffffffffffffffff1681526020019081526020016000206005018190555085600160008673ffffffffffffffffffffffffffffffffffffffff1673ffffffffffffffffffffffffffffffffffffffff168152602001908152602001600020600601819055508373ffffffffffffffffffffffffffffffffffffffff1663f3ccaac06000604051602001526040518163ffffffff167c0100000000000000000000000000000000000000000000000000000000028152600401602060405180830381600087803b15156119d757600080fd5b6102c65a03f115156119e857600080fd5b50505060405180519050600160008673ffffffffffffffffffffffffffffffffffffffff1673ffffffffffffffffffffffffffffffffffffffff16815260200190815260200160002060070181600019169055505b8673ffffffffffffffffffffffffffffffffffffffff163373ffffffffffffffffffffffffffffffffffffffff167f6853b2e48d910ba1e034828f2cf1fe3ce6811120e7d7cbf3310152f472b7c985886040518082815260200191505060405180910390a3600194505050505092915050565b60008060009054906101000a900473ffffffffffffffffffffffffffffffffffffffff1673ffffffffffffffffffffffffffffffffffffffff163373ffffffffffffffffffffffffffffffffffffffff16141515611b0d57600080fd5b600060149054906101000a900460ff161515611b2857600080fd5b600060159054906101000a900460ff16151515611b4457600080fd5b6001600060156101000a81548160ff0219169083151502179055503373ffffffffffffffffffffffffffffffffffffffff167f7cd531232cf2a935531a2059a1021ee56cecce23e6f421cfa5cb1043fe101ab860405160405180910390a26001905090565b815481835581811511611bd057818360005260206000209182019101611bcf9190611c01565b5b505050565b815481835581811511611bfc57818360005260206000209182019101611bfb9190611c01565b5b505050565b611c2391905b80821115611c1f576000816000905550600101611c07565b5090565b905600a165627a7a7230582009bc23e3ab4179ba74c17b08f707664b0325d7e93a74375312d7ac310e98312c0029",
  "source": "pragma solidity 0.4.18;\r\n\r\nimport \"./Killable.sol\";\r\nimport \"./Shop.sol\";\r\n\r\ncontract Order is Killable {\r\n    struct ProductStruct {\r\n        Product product;\r\n        uint index;\r\n\r\n        bytes32 name;\r\n        bytes32 sku;\r\n        bytes32 category;\r\n        uint price;\r\n        uint quantity;\r\n        bytes32 image;\r\n    }\r\n\r\n    enum OrderStatus { Created, Paid, Cancelled }\r\n\r\n    mapping (address => ProductStruct) public productsStruct;\r\n    address[] public productIndex; // max 10 unique products per order\r\n\r\n    address public shop;\r\n\r\n    OrderStatus public status;\r\n    uint public total;\r\n    //uint public balance;\r\n\r\n    event LogAddProduct(address indexed who, address indexed product, uint quantity);\r\n    event LogRemoveProduct(address indexed who, address indexed product, uint quantity);\r\n    event LogSetStatus(address indexed who, OrderStatus indexed status);\r\n\r\n    modifier isCreated() {\r\n        require(status == OrderStatus.Created);\r\n        _;\r\n    }\r\n\r\n    function Order(Shop _shop) Ownable() public {\r\n        require(_shop.owner() != address(0));\r\n        shop = _shop;\r\n    }\r\n\r\n    function getProductCount()\r\n        public\r\n        constant\r\n        returns(uint productCount)\r\n    {\r\n        return productIndex.length;\r\n    }\r\n\r\n    function getProductAtIndex(uint8 _index) \r\n        public\r\n        constant\r\n        returns(address product)\r\n    {\r\n        return productsStruct[productIndex[_index]].product;\r\n    }\r\n\r\n    function getProductQuantityAtIndex(uint8 _index) \r\n        public\r\n        constant\r\n        returns(uint quantity)\r\n    {\r\n        return productsStruct[productIndex[_index]].quantity;\r\n    }\r\n\r\n    function addProduct(address _product, uint _quantity)\r\n        isOwner\r\n        isCreated\r\n        public\r\n        returns(bool success)\r\n    {\r\n        require(_product != address(0));\r\n        require(_quantity > 0);\r\n\r\n        // require product belongs to the shop\r\n\r\n        Product untrustedProduct = Product(_product);\r\n\r\n        uint productStock = untrustedProduct.stock();\r\n        uint productPrice = untrustedProduct.price();\r\n\r\n        require(productStock >= _quantity);\r\n\r\n        uint productTotal = productPrice * _quantity;\r\n\r\n        require(productTotal + total > total);\r\n\r\n        total += productTotal;\r\n\r\n        if (productsStruct[untrustedProduct].product != address(0)) {\r\n            require(productsStruct[untrustedProduct].quantity + _quantity < productStock);\r\n\r\n            productsStruct[untrustedProduct].quantity += _quantity;\r\n        } else {\r\n            require(productIndex.length + 1 < 10);\r\n\r\n            productIndex.push(untrustedProduct);\r\n            productsStruct[untrustedProduct].product = untrustedProduct;\r\n            productsStruct[untrustedProduct].index = productIndex.length - 1;\r\n            productsStruct[untrustedProduct].name = untrustedProduct.name();\r\n            productsStruct[untrustedProduct].sku = untrustedProduct.sku();\r\n            productsStruct[untrustedProduct].category = untrustedProduct.category();\r\n            productsStruct[untrustedProduct].price = productPrice;\r\n            productsStruct[untrustedProduct].quantity = _quantity;\r\n            productsStruct[untrustedProduct].image = untrustedProduct.image();\r\n        }\r\n\r\n        LogAddProduct(msg.sender, _product, _quantity);\r\n\r\n        return true;\r\n    }\r\n\r\n    function removeProduct(address _product, uint _quantity)\r\n        isOwner\r\n        isCreated\r\n        public\r\n        returns(bool success)\r\n    {\r\n        require(productsStruct[_product].product != address(0));\r\n\r\n        if (_quantity >= productsStruct[_product].quantity || _quantity == 0) {\r\n            uint rowToDelete = productsStruct[_product].index;\r\n            address keyToMove = productIndex[productIndex.length-1]; \r\n\r\n            productIndex[rowToDelete] = keyToMove; \r\n            productsStruct[keyToMove].index = rowToDelete;\r\n            productIndex.length = productIndex.length - 1;\r\n        } else {\r\n            require(productsStruct[_product].quantity - _quantity > 0);\r\n            productsStruct[_product].quantity -= _quantity;\r\n        }\r\n\r\n        LogRemoveProduct(msg.sender, _product, _quantity);\r\n\r\n        return true;\r\n    }\r\n\r\n    function setStatus(OrderStatus _status) \r\n        public\r\n        returns(bool success)\r\n    {\r\n        require(msg.sender == shop);\r\n\r\n        status = _status;\r\n\r\n        LogSetStatus(msg.sender, _status);\r\n\r\n        return true;\r\n    }\r\n\r\n    function kill() public isCreated returns(bool success) {\r\n        return Killable.kill();\r\n    }\r\n\r\n    /*function pay()\r\n        public\r\n        isOwner\r\n        isNotLocked\r\n        payable\r\n        returns(bool success)\r\n    {\r\n        require(msg.value > 0);\r\n        require(msg.value == total);\r\n\r\n        balance = msg.value;\r\n        locked = true;\r\n\r\n        return true;\r\n    }\r\n\r\n    function cancel()\r\n        public\r\n        isOwner\r\n        returns(bool success)\r\n    {\r\n        require(paid != true);\r\n        // cancel order and refund\r\n        selfdestruct(msg.sender);\r\n\r\n        return true;\r\n    }\r\n\r\n    function processPayment()\r\n        public\r\n        returns(bool success)\r\n    {\r\n        require(msg.sender == shop);\r\n        require(balance > 0);\r\n\r\n        msg.sender.transfer(balance);\r\n\r\n        balance = 0;\r\n        paid = true;\r\n        //LogPayment(msg.sender, balance);\r\n\r\n        return true;\r\n    }*/\r\n}",
  "sourcePath": "F:\\DAPPS\\shop\\contracts\\Order.sol",
  "compiler": {
    "name": "solc",
    "version": "0.4.18+commit.9cf6e910.Emscripten.clang"
  },
  "schemaVersion": "1.0.1",
  "updatedAt": "2017-11-18T12:08:49.665Z"
}