{
  "contractName": "Shop",
  "abi": [
    {
      "constant": true,
      "inputs": [],
      "name": "name",
      "outputs": [
        {
          "name": "",
          "type": "bytes32"
        }
      ],
      "payable": false,
      "stateMutability": "view",
      "type": "function"
    },
    {
      "constant": false,
      "inputs": [
        {
          "name": "newOwner",
          "type": "address"
        }
      ],
      "name": "setOwner",
      "outputs": [
        {
          "name": "success",
          "type": "bool"
        }
      ],
      "payable": false,
      "stateMutability": "nonpayable",
      "type": "function"
    },
    {
      "constant": false,
      "inputs": [
        {
          "name": "newPaused",
          "type": "bool"
        }
      ],
      "name": "setPaused",
      "outputs": [
        {
          "name": "success",
          "type": "bool"
        }
      ],
      "payable": false,
      "stateMutability": "nonpayable",
      "type": "function"
    },
    {
      "constant": true,
      "inputs": [],
      "name": "killed",
      "outputs": [
        {
          "name": "",
          "type": "bool"
        }
      ],
      "payable": false,
      "stateMutability": "view",
      "type": "function"
    },
    {
      "constant": true,
      "inputs": [
        {
          "name": "",
          "type": "uint256"
        }
      ],
      "name": "productIndex",
      "outputs": [
        {
          "name": "",
          "type": "address"
        }
      ],
      "payable": false,
      "stateMutability": "view",
      "type": "function"
    },
    {
      "constant": false,
      "inputs": [],
      "name": "kill",
      "outputs": [
        {
          "name": "success",
          "type": "bool"
        }
      ],
      "payable": false,
      "stateMutability": "nonpayable",
      "type": "function"
    },
    {
      "constant": true,
      "inputs": [],
      "name": "getProductCount",
      "outputs": [
        {
          "name": "productCount",
          "type": "uint256"
        }
      ],
      "payable": false,
      "stateMutability": "view",
      "type": "function"
    },
    {
      "constant": false,
      "inputs": [],
      "name": "emergencyWithdrawal",
      "outputs": [
        {
          "name": "success",
          "type": "bool"
        }
      ],
      "payable": false,
      "stateMutability": "nonpayable",
      "type": "function"
    },
    {
      "constant": true,
      "inputs": [],
      "name": "paused",
      "outputs": [
        {
          "name": "",
          "type": "bool"
        }
      ],
      "payable": false,
      "stateMutability": "view",
      "type": "function"
    },
    {
      "constant": false,
      "inputs": [
        {
          "name": "_order",
          "type": "address"
        }
      ],
      "name": "submitOrder",
      "outputs": [
        {
          "name": "success",
          "type": "bool"
        }
      ],
      "payable": true,
      "stateMutability": "payable",
      "type": "function"
    },
    {
      "constant": true,
      "inputs": [
        {
          "name": "",
          "type": "address"
        }
      ],
      "name": "ordersStruct",
      "outputs": [
        {
          "name": "order",
          "type": "address"
        },
        {
          "name": "index",
          "type": "uint256"
        },
        {
          "name": "paid",
          "type": "bool"
        }
      ],
      "payable": false,
      "stateMutability": "view",
      "type": "function"
    },
    {
      "constant": false,
      "inputs": [
        {
          "name": "_product",
          "type": "address"
        }
      ],
      "name": "removeProduct",
      "outputs": [
        {
          "name": "success",
          "type": "bool"
        }
      ],
      "payable": false,
      "stateMutability": "nonpayable",
      "type": "function"
    },
    {
      "constant": true,
      "inputs": [
        {
          "name": "",
          "type": "uint256"
        }
      ],
      "name": "orderIndex",
      "outputs": [
        {
          "name": "",
          "type": "address"
        }
      ],
      "payable": false,
      "stateMutability": "view",
      "type": "function"
    },
    {
      "constant": true,
      "inputs": [],
      "name": "getOrderCount",
      "outputs": [
        {
          "name": "orderCount",
          "type": "uint256"
        }
      ],
      "payable": false,
      "stateMutability": "view",
      "type": "function"
    },
    {
      "constant": true,
      "inputs": [],
      "name": "owner",
      "outputs": [
        {
          "name": "",
          "type": "address"
        }
      ],
      "payable": false,
      "stateMutability": "view",
      "type": "function"
    },
    {
      "constant": true,
      "inputs": [
        {
          "name": "",
          "type": "address"
        }
      ],
      "name": "productsStruct",
      "outputs": [
        {
          "name": "product",
          "type": "address"
        },
        {
          "name": "index",
          "type": "uint256"
        }
      ],
      "payable": false,
      "stateMutability": "view",
      "type": "function"
    },
    {
      "constant": false,
      "inputs": [
        {
          "name": "_merchant",
          "type": "address"
        }
      ],
      "name": "setMerchant",
      "outputs": [
        {
          "name": "success",
          "type": "bool"
        }
      ],
      "payable": false,
      "stateMutability": "nonpayable",
      "type": "function"
    },
    {
      "constant": true,
      "inputs": [],
      "name": "merchant",
      "outputs": [
        {
          "name": "",
          "type": "address"
        }
      ],
      "payable": false,
      "stateMutability": "view",
      "type": "function"
    },
    {
      "constant": false,
      "inputs": [
        {
          "name": "_name",
          "type": "bytes32"
        }
      ],
      "name": "setShopName",
      "outputs": [
        {
          "name": "success",
          "type": "bool"
        }
      ],
      "payable": false,
      "stateMutability": "nonpayable",
      "type": "function"
    },
    {
      "constant": true,
      "inputs": [],
      "name": "balance",
      "outputs": [
        {
          "name": "",
          "type": "uint256"
        }
      ],
      "payable": false,
      "stateMutability": "view",
      "type": "function"
    },
    {
      "constant": false,
      "inputs": [
        {
          "name": "_name",
          "type": "bytes32"
        },
        {
          "name": "_sku",
          "type": "bytes32"
        },
        {
          "name": "_category",
          "type": "bytes32"
        },
        {
          "name": "_price",
          "type": "uint256"
        },
        {
          "name": "_stock",
          "type": "uint256"
        },
        {
          "name": "_image",
          "type": "bytes32"
        }
      ],
      "name": "addProduct",
      "outputs": [
        {
          "name": "productContract",
          "type": "address"
        }
      ],
      "payable": false,
      "stateMutability": "nonpayable",
      "type": "function"
    },
    {
      "inputs": [
        {
          "name": "_merchant",
          "type": "address"
        },
        {
          "name": "_name",
          "type": "bytes32"
        }
      ],
      "payable": false,
      "stateMutability": "nonpayable",
      "type": "constructor"
    },
    {
      "anonymous": false,
      "inputs": [
        {
          "indexed": true,
          "name": "who",
          "type": "address"
        },
        {
          "indexed": true,
          "name": "name",
          "type": "bytes32"
        }
      ],
      "name": "LogSetShopName",
      "type": "event"
    },
    {
      "anonymous": false,
      "inputs": [
        {
          "indexed": true,
          "name": "who",
          "type": "address"
        },
        {
          "indexed": true,
          "name": "merchant",
          "type": "address"
        }
      ],
      "name": "LogSetMerchant",
      "type": "event"
    },
    {
      "anonymous": false,
      "inputs": [
        {
          "indexed": true,
          "name": "who",
          "type": "address"
        },
        {
          "indexed": true,
          "name": "product",
          "type": "address"
        },
        {
          "indexed": true,
          "name": "name",
          "type": "bytes32"
        },
        {
          "indexed": false,
          "name": "sku",
          "type": "bytes32"
        },
        {
          "indexed": false,
          "name": "category",
          "type": "bytes32"
        },
        {
          "indexed": false,
          "name": "price",
          "type": "uint256"
        },
        {
          "indexed": false,
          "name": "stock",
          "type": "uint256"
        },
        {
          "indexed": false,
          "name": "image",
          "type": "bytes32"
        }
      ],
      "name": "LogAddProduct",
      "type": "event"
    },
    {
      "anonymous": false,
      "inputs": [
        {
          "indexed": true,
          "name": "who",
          "type": "address"
        },
        {
          "indexed": true,
          "name": "product",
          "type": "address"
        },
        {
          "indexed": true,
          "name": "name",
          "type": "bytes32"
        },
        {
          "indexed": false,
          "name": "sku",
          "type": "bytes32"
        },
        {
          "indexed": false,
          "name": "category",
          "type": "bytes32"
        }
      ],
      "name": "LogRemoveProduct",
      "type": "event"
    },
    {
      "anonymous": false,
      "inputs": [
        {
          "indexed": true,
          "name": "who",
          "type": "address"
        },
        {
          "indexed": true,
          "name": "order",
          "type": "address"
        },
        {
          "indexed": true,
          "name": "total",
          "type": "uint256"
        }
      ],
      "name": "LogSubmitOrder",
      "type": "event"
    },
    {
      "anonymous": false,
      "inputs": [
        {
          "indexed": true,
          "name": "who",
          "type": "address"
        }
      ],
      "name": "LogKill",
      "type": "event"
    },
    {
      "anonymous": false,
      "inputs": [
        {
          "indexed": true,
          "name": "who",
          "type": "address"
        },
        {
          "indexed": false,
          "name": "withdrawalAmount",
          "type": "uint256"
        }
      ],
      "name": "LogEmergencyWithdrawal",
      "type": "event"
    },
    {
      "anonymous": false,
      "inputs": [
        {
          "indexed": true,
          "name": "who",
          "type": "address"
        },
        {
          "indexed": true,
          "name": "paused",
          "type": "bool"
        }
      ],
      "name": "LogSetPaused",
      "type": "event"
    },
    {
      "anonymous": false,
      "inputs": [
        {
          "indexed": true,
          "name": "oldOwner",
          "type": "address"
        },
        {
          "indexed": true,
          "name": "newOwner",
          "type": "address"
        }
      ],
      "name": "LogSetOwner",
      "type": "event"
    }
  ],
  "bytecode": "0x6060604052341561000f57600080fd5b604051604080613ba083398101604052808051906020019091908051906020019091905050336000806101000a81548173ffffffffffffffffffffffffffffffffffffffff021916908373ffffffffffffffffffffffffffffffffffffffff160217905550600073ffffffffffffffffffffffffffffffffffffffff168273ffffffffffffffffffffffffffffffffffffffff16141515156100b057600080fd5b60008160001916141515156100c457600080fd5b81600560006101000a81548173ffffffffffffffffffffffffffffffffffffffff021916908373ffffffffffffffffffffffffffffffffffffffff16021790555080600781600019169055505050613a7f806101216000396000f30060606040526004361061011d576000357c0100000000000000000000000000000000000000000000000000000000900463ffffffff16806306fdde031461012257806313af40351461015357806316c38b3c146101a45780631f3a0e41146101e1578063322d5a331461020e57806341c0e1b5146102715780634a348da91461029e5780635b0a3843146102c75780635c975abb146102f4578063697f565414610321578063751bc45714610367578063787b6725146103f2578063864d1260146104435780638d0a5fbb146104a65780638da5cb5b146104cf5780638dfda15a14610524578063a2fba484146105a4578063a5ff7651146105f5578063ab0f359a1461064a578063b69ef8a814610689578063fe8d0f0b146106b2575b600080fd5b341561012d57600080fd5b610135610752565b60405180826000191660001916815260200191505060405180910390f35b341561015e57600080fd5b61018a600480803573ffffffffffffffffffffffffffffffffffffffff16906020019091905050610758565b604051808215151515815260200191505060405180910390f35b34156101af57600080fd5b6101c760048080351515906020019091905050610911565b604051808215151515815260200191505060405180910390f35b34156101ec57600080fd5b6101f4610a1a565b604051808215151515815260200191505060405180910390f35b341561021957600080fd5b61022f6004808035906020019091905050610a2d565b604051808273ffffffffffffffffffffffffffffffffffffffff1673ffffffffffffffffffffffffffffffffffffffff16815260200191505060405180910390f35b341561027c57600080fd5b610284610a6c565b604051808215151515815260200191505060405180910390f35b34156102a957600080fd5b6102b1610b65565b6040518082815260200191505060405180910390f35b34156102d257600080fd5b6102da610b72565b604051808215151515815260200191505060405180910390f35b34156102ff57600080fd5b610307610cbf565b604051808215151515815260200191505060405180910390f35b61034d600480803573ffffffffffffffffffffffffffffffffffffffff16906020019091905050610cd2565b604051808215151515815260200191505060405180910390f35b341561037257600080fd5b61039e600480803573ffffffffffffffffffffffffffffffffffffffff16906020019091905050611704565b604051808473ffffffffffffffffffffffffffffffffffffffff1673ffffffffffffffffffffffffffffffffffffffff16815260200183815260200182151515158152602001935050505060405180910390f35b34156103fd57600080fd5b610429600480803573ffffffffffffffffffffffffffffffffffffffff1690602001909190505061175b565b604051808215151515815260200191505060405180910390f35b341561044e57600080fd5b6104646004808035906020019091905050611cbb565b604051808273ffffffffffffffffffffffffffffffffffffffff1673ffffffffffffffffffffffffffffffffffffffff16815260200191505060405180910390f35b34156104b157600080fd5b6104b9611cfa565b6040518082815260200191505060405180910390f35b34156104da57600080fd5b6104e2611d07565b604051808273ffffffffffffffffffffffffffffffffffffffff1673ffffffffffffffffffffffffffffffffffffffff16815260200191505060405180910390f35b341561052f57600080fd5b61055b600480803573ffffffffffffffffffffffffffffffffffffffff16906020019091905050611d2c565b604051808373ffffffffffffffffffffffffffffffffffffffff1673ffffffffffffffffffffffffffffffffffffffff1681526020018281526020019250505060405180910390f35b34156105af57600080fd5b6105db600480803573ffffffffffffffffffffffffffffffffffffffff16906020019091905050611d70565b604051808215151515815260200191505060405180910390f35b341561060057600080fd5b610608611f62565b604051808273ffffffffffffffffffffffffffffffffffffffff1673ffffffffffffffffffffffffffffffffffffffff16815260200191505060405180910390f35b341561065557600080fd5b61066f600480803560001916906020019091905050611f88565b604051808215151515815260200191505060405180910390f35b341561069457600080fd5b61069c6120c6565b6040518082815260200191505060405180910390f35b34156106bd57600080fd5b6107106004808035600019169060200190919080356000191690602001909190803560001916906020019091908035906020019091908035906020019091908035600019169060200190919050506120cc565b604051808273ffffffffffffffffffffffffffffffffffffffff1673ffffffffffffffffffffffffffffffffffffffff16815260200191505060405180910390f35b60075481565b60008060009054906101000a900473ffffffffffffffffffffffffffffffffffffffff1673ffffffffffffffffffffffffffffffffffffffff163373ffffffffffffffffffffffffffffffffffffffff161415156107b557600080fd5b600073ffffffffffffffffffffffffffffffffffffffff168273ffffffffffffffffffffffffffffffffffffffff16141515156107f157600080fd5b6000809054906101000a900473ffffffffffffffffffffffffffffffffffffffff1673ffffffffffffffffffffffffffffffffffffffff168273ffffffffffffffffffffffffffffffffffffffff161415151561084d57600080fd5b8173ffffffffffffffffffffffffffffffffffffffff166000809054906101000a900473ffffffffffffffffffffffffffffffffffffffff1673ffffffffffffffffffffffffffffffffffffffff167fc66d1d23a5b7baf1f496bb19f580d7b12070ad5a08a758c990db97d961fa33a660405160405180910390a3816000806101000a81548173ffffffffffffffffffffffffffffffffffffffff021916908373ffffffffffffffffffffffffffffffffffffffff16021790555060019050919050565b60008060009054906101000a900473ffffffffffffffffffffffffffffffffffffffff1673ffffffffffffffffffffffffffffffffffffffff163373ffffffffffffffffffffffffffffffffffffffff1614151561096e57600080fd5b600060149054906101000a900460ff1615158215151415151561099057600080fd5b81600060146101000a81548160ff0219169083151502179055508115156000809054906101000a900473ffffffffffffffffffffffffffffffffffffffff1673ffffffffffffffffffffffffffffffffffffffff167f271ac239d392431f17dea7ef0a13e9a6784ca02b0ce5d00a400c0490f17fecd760405160405180910390a360019050919050565b600060159054906101000a900460ff1681565b600281815481101515610a3c57fe5b90600052602060002090016000915054906101000a900473ffffffffffffffffffffffffffffffffffffffff1681565b60008060009054906101000a900473ffffffffffffffffffffffffffffffffffffffff1673ffffffffffffffffffffffffffffffffffffffff163373ffffffffffffffffffffffffffffffffffffffff16141515610ac957600080fd5b600060149054906101000a900460ff161515610ae457600080fd5b600060159054906101000a900460ff16151515610b0057600080fd5b6001600060156101000a81548160ff0219169083151502179055503373ffffffffffffffffffffffffffffffffffffffff167f7cd531232cf2a935531a2059a1021ee56cecce23e6f421cfa5cb1043fe101ab860405160405180910390a26001905090565b6000600280549050905090565b60008060009054906101000a900473ffffffffffffffffffffffffffffffffffffffff1673ffffffffffffffffffffffffffffffffffffffff163373ffffffffffffffffffffffffffffffffffffffff16141515610bcf57600080fd5b600060159054906101000a900460ff161515610bea57600080fd5b3373ffffffffffffffffffffffffffffffffffffffff167f88cfe71ce7f29d85a8667d1457b17ced3748124d76866a6ef65bc53f928001da3073ffffffffffffffffffffffffffffffffffffffff16316040518082815260200191505060405180910390a23373ffffffffffffffffffffffffffffffffffffffff166108fc3073ffffffffffffffffffffffffffffffffffffffff16319081150290604051600060405180830381858888f193505050501515610ca657600080fd5b3373ffffffffffffffffffffffffffffffffffffffff16ff5b600060149054906101000a900460ff1681565b60008060008060008060008060008060008b9950600115158a73ffffffffffffffffffffffffffffffffffffffff16631f3a0e416000604051602001526040518163ffffffff167c0100000000000000000000000000000000000000000000000000000000028152600401602060405180830381600087803b1515610d5657600080fd5b6102c65a03f11515610d6757600080fd5b50505060405180519050151514151515610d8057600080fd5b600115158a73ffffffffffffffffffffffffffffffffffffffff16635c975abb6000604051602001526040518163ffffffff167c0100000000000000000000000000000000000000000000000000000000028152600401602060405180830381600087803b1515610df057600080fd5b6102c65a03f11515610e0157600080fd5b50505060405180519050151514151515610e1a57600080fd5b60006002811115610e2757fe5b8a73ffffffffffffffffffffffffffffffffffffffff1663200d2ed26000604051602001526040518163ffffffff167c0100000000000000000000000000000000000000000000000000000000028152600401602060405180830381600087803b1515610e9357600080fd5b6102c65a03f11515610ea457600080fd5b505050604051805190506002811115610eb957fe5b141515610ec557600080fd5b60008a73ffffffffffffffffffffffffffffffffffffffff16632ddbd13a6000604051602001526040518163ffffffff167c0100000000000000000000000000000000000000000000000000000000028152600401602060405180830381600087803b1515610f3357600080fd5b6102c65a03f11515610f4457600080fd5b50505060405180519050111515610f5a57600080fd5b8973ffffffffffffffffffffffffffffffffffffffff16632ddbd13a6000604051602001526040518163ffffffff167c0100000000000000000000000000000000000000000000000000000000028152600401602060405180830381600087803b1515610fc657600080fd5b6102c65a03f11515610fd757600080fd5b5050506040518051905034141515610fee57600080fd5b600654600654340111151561100257600080fd5b346006600082825401925050819055508973ffffffffffffffffffffffffffffffffffffffff16634a348da96000604051602001526040518163ffffffff167c0100000000000000000000000000000000000000000000000000000000028152600401602060405180830381600087803b151561107e57600080fd5b6102c65a03f1151561108f57600080fd5b5050506040518051905098506000891115156110aa57600080fd5b600a891015156110b957600080fd5b60009750600096505b888760ff1610156114ac578973ffffffffffffffffffffffffffffffffffffffff1663cba49e41886000604051602001526040518263ffffffff167c0100000000000000000000000000000000000000000000000000000000028152600401808260ff1660ff168152602001915050602060405180830381600087803b151561114a57600080fd5b6102c65a03f1151561115b57600080fd5b5050506040518051905095508973ffffffffffffffffffffffffffffffffffffffff16636197ce30886000604051602001526040518263ffffffff167c0100000000000000000000000000000000000000000000000000000000028152600401808260ff1660ff168152602001915050602060405180830381600087803b15156111e457600080fd5b6102c65a03f115156111f557600080fd5b5050506040518051905094508573ffffffffffffffffffffffffffffffffffffffff1663bdf3c4ae6000604051602001526040518163ffffffff167c0100000000000000000000000000000000000000000000000000000000028152600401602060405180830381600087803b151561126d57600080fd5b6102c65a03f1151561127e57600080fd5b505050604051805190509350848403925060008511151561129e57600080fd5b8573ffffffffffffffffffffffffffffffffffffffff1663bdf3c4ae6000604051602001526040518163ffffffff167c0100000000000000000000000000000000000000000000000000000000028152600401602060405180830381600087803b151561130a57600080fd5b6102c65a03f1151561131b57600080fd5b50505060405180519050851115151561133357600080fd5b838310151561134157600080fd5b8573ffffffffffffffffffffffffffffffffffffffff1663a035b1fe6000604051602001526040518163ffffffff167c0100000000000000000000000000000000000000000000000000000000028152600401602060405180830381600087803b15156113ad57600080fd5b6102c65a03f115156113be57600080fd5b50505060405180519050915084820290506000811115156113de57600080fd5b8181101515156113ed57600080fd5b878189011115156113fd57600080fd5b8573ffffffffffffffffffffffffffffffffffffffff1663474a9995846000604051602001526040518263ffffffff167c010000000000000000000000000000000000000000000000000000000002815260040180828152602001915050602060405180830381600087803b151561147457600080fd5b6102c65a03f1151561148557600080fd5b50505060405180519050151561149a57600080fd5b808801975086806001019750506110c2565b34881415156114ba57600080fd5b8973ffffffffffffffffffffffffffffffffffffffff16632e49d78b60016000604051602001526040518263ffffffff167c01000000000000000000000000000000000000000000000000000000000281526004018082600281111561151c57fe5b60ff168152602001915050602060405180830381600087803b151561154057600080fd5b6102c65a03f1151561155157600080fd5b50505060405180519050151561156657600080fd5b6004805480600101828161157a919061246a565b916000526020600020900160008c909190916101000a81548173ffffffffffffffffffffffffffffffffffffffff021916908373ffffffffffffffffffffffffffffffffffffffff1602179055505089600360008c73ffffffffffffffffffffffffffffffffffffffff1673ffffffffffffffffffffffffffffffffffffffff16815260200190815260200160002060000160006101000a81548173ffffffffffffffffffffffffffffffffffffffff021916908373ffffffffffffffffffffffffffffffffffffffff160217905550600480549050600360008c73ffffffffffffffffffffffffffffffffffffffff1673ffffffffffffffffffffffffffffffffffffffff16815260200190815260200160002060010181905550878c73ffffffffffffffffffffffffffffffffffffffff163373ffffffffffffffffffffffffffffffffffffffff167fbe0c690463f24413faace8c9d546c2477e34d2b3f7601627dc0f23baf81f62f860405160405180910390a460019a5050505050505050505050919050565b60036020528060005260406000206000915090508060000160009054906101000a900473ffffffffffffffffffffffffffffffffffffffff16908060010154908060020160009054906101000a900460ff16905083565b60008060008060008060008060009054906101000a900473ffffffffffffffffffffffffffffffffffffffff1673ffffffffffffffffffffffffffffffffffffffff163373ffffffffffffffffffffffffffffffffffffffff16148061180e5750600560009054906101000a900473ffffffffffffffffffffffffffffffffffffffff1673ffffffffffffffffffffffffffffffffffffffff163373ffffffffffffffffffffffffffffffffffffffff16145b151561181957600080fd5b87600073ffffffffffffffffffffffffffffffffffffffff16600160008373ffffffffffffffffffffffffffffffffffffffff1673ffffffffffffffffffffffffffffffffffffffff16815260200190815260200160002060000160009054906101000a900473ffffffffffffffffffffffffffffffffffffffff1673ffffffffffffffffffffffffffffffffffffffff16141515156118b857600080fd5b8896508673ffffffffffffffffffffffffffffffffffffffff166306fdde036000604051602001526040518163ffffffff167c0100000000000000000000000000000000000000000000000000000000028152600401602060405180830381600087803b151561192757600080fd5b6102c65a03f1151561193857600080fd5b5050506040518051905095508673ffffffffffffffffffffffffffffffffffffffff16634462f40c6000604051602001526040518163ffffffff167c0100000000000000000000000000000000000000000000000000000000028152600401602060405180830381600087803b15156119b057600080fd5b6102c65a03f115156119c157600080fd5b5050506040518051905094508673ffffffffffffffffffffffffffffffffffffffff1663ef430aa66000604051602001526040518163ffffffff167c0100000000000000000000000000000000000000000000000000000000028152600401602060405180830381600087803b1515611a3957600080fd5b6102c65a03f11515611a4a57600080fd5b5050506040518051905093508673ffffffffffffffffffffffffffffffffffffffff166383197ef06000604051602001526040518163ffffffff167c0100000000000000000000000000000000000000000000000000000000028152600401602060405180830381600087803b1515611ac257600080fd5b6102c65a03f11515611ad357600080fd5b505050604051805190501515611ae857600080fd5b600160008a73ffffffffffffffffffffffffffffffffffffffff1673ffffffffffffffffffffffffffffffffffffffff1681526020019081526020016000206001015492506002600160028054905003815481101515611b4457fe5b906000526020600020900160009054906101000a900473ffffffffffffffffffffffffffffffffffffffff16915081600284815481101515611b8257fe5b906000526020600020900160006101000a81548173ffffffffffffffffffffffffffffffffffffffff021916908373ffffffffffffffffffffffffffffffffffffffff16021790555082600160008473ffffffffffffffffffffffffffffffffffffffff1673ffffffffffffffffffffffffffffffffffffffff16815260200190815260200160002060010181905550600160028054905003600281611c289190612496565b5085600019168973ffffffffffffffffffffffffffffffffffffffff163373ffffffffffffffffffffffffffffffffffffffff167fece75c11426044572a851ae80193a32a79f380fe3f403f764d6c55718af6f5cf888860405180836000191660001916815260200182600019166000191681526020019250505060405180910390a46001975050505050505050919050565b600481815481101515611cca57fe5b90600052602060002090016000915054906101000a900473ffffffffffffffffffffffffffffffffffffffff1681565b6000600480549050905090565b6000809054906101000a900473ffffffffffffffffffffffffffffffffffffffff1681565b60016020528060005260406000206000915090508060000160009054906101000a900473ffffffffffffffffffffffffffffffffffffffff16908060010154905082565b60008060009054906101000a900473ffffffffffffffffffffffffffffffffffffffff1673ffffffffffffffffffffffffffffffffffffffff163373ffffffffffffffffffffffffffffffffffffffff161480611e1a5750600560009054906101000a900473ffffffffffffffffffffffffffffffffffffffff1673ffffffffffffffffffffffffffffffffffffffff163373ffffffffffffffffffffffffffffffffffffffff16145b1515611e2557600080fd5b600073ffffffffffffffffffffffffffffffffffffffff168273ffffffffffffffffffffffffffffffffffffffff1614151515611e6157600080fd5b600560009054906101000a900473ffffffffffffffffffffffffffffffffffffffff1673ffffffffffffffffffffffffffffffffffffffff168273ffffffffffffffffffffffffffffffffffffffff1614151515611ebe57600080fd5b81600560006101000a81548173ffffffffffffffffffffffffffffffffffffffff021916908373ffffffffffffffffffffffffffffffffffffffff1602179055508173ffffffffffffffffffffffffffffffffffffffff163373ffffffffffffffffffffffffffffffffffffffff167f8c296f3a759ab830cbfcd7f384a0f967edf2eca6f2b98d512c5652130493297060405160405180910390a360019050919050565b600560009054906101000a900473ffffffffffffffffffffffffffffffffffffffff1681565b60008060009054906101000a900473ffffffffffffffffffffffffffffffffffffffff1673ffffffffffffffffffffffffffffffffffffffff163373ffffffffffffffffffffffffffffffffffffffff1614806120325750600560009054906101000a900473ffffffffffffffffffffffffffffffffffffffff1673ffffffffffffffffffffffffffffffffffffffff163373ffffffffffffffffffffffffffffffffffffffff16145b151561203d57600080fd5b600082600019161415151561205157600080fd5b6007546000191682600019161415151561206a57600080fd5b816007816000191690555081600019163373ffffffffffffffffffffffffffffffffffffffff167f12cf1688937a50448ffc83e1788975417e45cde57120660a279297a59766397160405160405180910390a360019050919050565b60065481565b6000806000809054906101000a900473ffffffffffffffffffffffffffffffffffffffff1673ffffffffffffffffffffffffffffffffffffffff163373ffffffffffffffffffffffffffffffffffffffff1614806121775750600560009054906101000a900473ffffffffffffffffffffffffffffffffffffffff1673ffffffffffffffffffffffffffffffffffffffff163373ffffffffffffffffffffffffffffffffffffffff16145b151561218257600080fd5b600088600019161415151561219657600080fd5b60008760001916141515156121aa57600080fd5b60008660001916141515156121be57600080fd5b600560009054906101000a900473ffffffffffffffffffffffffffffffffffffffff168888888888886121ef6124c2565b808873ffffffffffffffffffffffffffffffffffffffff1673ffffffffffffffffffffffffffffffffffffffff1681526020018760001916600019168152602001866000191660001916815260200185600019166000191681526020018481526020018381526020018260001916600019168152602001975050505050505050604051809103906000f080151561228557600080fd5b90506002805480600101828161229b919061246a565b9160005260206000209001600083909190916101000a81548173ffffffffffffffffffffffffffffffffffffffff021916908373ffffffffffffffffffffffffffffffffffffffff1602179055505080600160008373ffffffffffffffffffffffffffffffffffffffff1673ffffffffffffffffffffffffffffffffffffffff16815260200190815260200160002060000160006101000a81548173ffffffffffffffffffffffffffffffffffffffff021916908373ffffffffffffffffffffffffffffffffffffffff160217905550600160028054905003600160008373ffffffffffffffffffffffffffffffffffffffff1673ffffffffffffffffffffffffffffffffffffffff1681526020019081526020016000206001018190555087600019168173ffffffffffffffffffffffffffffffffffffffff163373ffffffffffffffffffffffffffffffffffffffff167f07cd400260a2116fe9b0b12f917c4fbd686dc4411352d580fa25a7a82b7316648a8a8a8a8a604051808660001916600019168152602001856000191660001916815260200184815260200183815260200182600019166000191681526020019550505050505060405180910390a4809150509695505050505050565b8154818355818115116124915781836000526020600020918201910161249091906124d3565b5b505050565b8154818355818115116124bd578183600052602060002091820191016124bc91906124d3565b5b505050565b60405161155b80620024f983390190565b6124f591905b808211156124f15760008160009055506001016124d9565b5090565b9056006060604052341561000f57600080fd5b60405160e08061155b83398101604052808051906020019091908051906020019091908051906020019091908051906020019091908051906020019091908051906020019091908051906020019091905050336000806101000a81548173ffffffffffffffffffffffffffffffffffffffff021916908373ffffffffffffffffffffffffffffffffffffffff160217905550600073ffffffffffffffffffffffffffffffffffffffff168773ffffffffffffffffffffffffffffffffffffffff16141515156100dd57600080fd5b60008660001916141515156100f157600080fd5b600085600019161415151561010557600080fd5b600084600019161415151561011957600080fd5b86600160006101000a81548173ffffffffffffffffffffffffffffffffffffffff021916908373ffffffffffffffffffffffffffffffffffffffff16021790555085600281600019169055508460038160001916905550836004816000191690555082600581905550816006819055508060078160001916905550505050505050506113b1806101aa6000396000f3006060604052600436106100fb576000357c0100000000000000000000000000000000000000000000000000000000900463ffffffff168062165a581461010057806306fdde03146101785780630ce91383146101a957806313af4035146101e85780634462f40c14610239578063474a99951461026a5780635ac801fe146102a5578063740b9060146102e457806383197ef01461032357806384ac7cde146103505780638da5cb5b1461038f57806391b7f5ed146103e4578063a035b1fe1461041f578063a2fba48414610448578063a5ff765114610499578063bdf3c4ae146104ee578063ef430aa614610517578063f3ccaac014610548575b600080fd5b341561010b57600080fd5b61015e600480803560001916906020019091908035600019169060200190919080356000191690602001909190803590602001909190803590602001909190803560001916906020019091905050610579565b604051808215151515815260200191505060405180910390f35b341561018357600080fd5b61018b61079a565b60405180826000191660001916815260200191505060405180910390f35b34156101b457600080fd5b6101ce6004808035600019169060200190919050506107a0565b604051808215151515815260200191505060405180910390f35b34156101f357600080fd5b61021f600480803573ffffffffffffffffffffffffffffffffffffffff169060200190919050506108de565b604051808215151515815260200191505060405180910390f35b341561024457600080fd5b61024c610a97565b60405180826000191660001916815260200191505060405180910390f35b341561027557600080fd5b61028b6004808035906020019091905050610a9d565b604051808215151515815260200191505060405180910390f35b34156102b057600080fd5b6102ca600480803560001916906020019091905050610bb7565b604051808215151515815260200191505060405180910390f35b34156102ef57600080fd5b610309600480803560001916906020019091905050610cf5565b604051808215151515815260200191505060405180910390f35b341561032e57600080fd5b610336610e33565b604051808215151515815260200191505060405180910390f35b341561035b57600080fd5b610375600480803560001916906020019091905050610eec565b604051808215151515815260200191505060405180910390f35b341561039a57600080fd5b6103a2611016565b604051808273ffffffffffffffffffffffffffffffffffffffff1673ffffffffffffffffffffffffffffffffffffffff16815260200191505060405180910390f35b34156103ef57600080fd5b610405600480803590602001909190505061103b565b604051808215151515815260200191505060405180910390f35b341561042a57600080fd5b610432611155565b6040518082815260200191505060405180910390f35b341561045357600080fd5b61047f600480803573ffffffffffffffffffffffffffffffffffffffff1690602001909190505061115b565b604051808215151515815260200191505060405180910390f35b34156104a457600080fd5b6104ac61134d565b604051808273ffffffffffffffffffffffffffffffffffffffff1673ffffffffffffffffffffffffffffffffffffffff16815260200191505060405180910390f35b34156104f957600080fd5b610501611373565b6040518082815260200191505060405180910390f35b341561052257600080fd5b61052a611379565b60405180826000191660001916815260200191505060405180910390f35b341561055357600080fd5b61055b61137f565b60405180826000191660001916815260200191505060405180910390f35b60008060009054906101000a900473ffffffffffffffffffffffffffffffffffffffff1673ffffffffffffffffffffffffffffffffffffffff163373ffffffffffffffffffffffffffffffffffffffff1614806106235750600160009054906101000a900473ffffffffffffffffffffffffffffffffffffffff1673ffffffffffffffffffffffffffffffffffffffff163373ffffffffffffffffffffffffffffffffffffffff16145b151561062e57600080fd5b600087600019161415151561064257600080fd5b600086600019161415151561065657600080fd5b600085600019161415151561066a57600080fd5b8660001916600254600019161415156106895786600281600019169055505b8560001916600354600019161415156106a85785600381600019169055505b8460001916600454600019161415156106c75784600481600019169055505b836005541415156106da57836005819055505b826006541415156106ed57826006819055505b81600019166007546000191614151561070c5781600781600019169055505b856000191687600019163373ffffffffffffffffffffffffffffffffffffffff167f9392c64a2d28fd958a16a542518015718cdf73d514d1852b34b6a67f1d87713a88888888604051808560001916600019168152602001848152602001838152602001826000191660001916815260200194505050505060405180910390a4600190509695505050505050565b60025481565b60008060009054906101000a900473ffffffffffffffffffffffffffffffffffffffff1673ffffffffffffffffffffffffffffffffffffffff163373ffffffffffffffffffffffffffffffffffffffff16148061084a5750600160009054906101000a900473ffffffffffffffffffffffffffffffffffffffff1673ffffffffffffffffffffffffffffffffffffffff163373ffffffffffffffffffffffffffffffffffffffff16145b151561085557600080fd5b600082600019161415151561086957600080fd5b6003546000191682600019161415151561088257600080fd5b816003816000191690555081600019163373ffffffffffffffffffffffffffffffffffffffff167f607d0df8cb6aa96c05a0dee1c8e52479fb01e15fe32e7f0ff60c2880a9cf66be60405160405180910390a360019050919050565b60008060009054906101000a900473ffffffffffffffffffffffffffffffffffffffff1673ffffffffffffffffffffffffffffffffffffffff163373ffffffffffffffffffffffffffffffffffffffff1614151561093b57600080fd5b600073ffffffffffffffffffffffffffffffffffffffff168273ffffffffffffffffffffffffffffffffffffffff161415151561097757600080fd5b6000809054906101000a900473ffffffffffffffffffffffffffffffffffffffff1673ffffffffffffffffffffffffffffffffffffffff168273ffffffffffffffffffffffffffffffffffffffff16141515156109d357600080fd5b8173ffffffffffffffffffffffffffffffffffffffff166000809054906101000a900473ffffffffffffffffffffffffffffffffffffffff1673ffffffffffffffffffffffffffffffffffffffff167fc66d1d23a5b7baf1f496bb19f580d7b12070ad5a08a758c990db97d961fa33a660405160405180910390a3816000806101000a81548173ffffffffffffffffffffffffffffffffffffffff021916908373ffffffffffffffffffffffffffffffffffffffff16021790555060019050919050565b60035481565b60008060009054906101000a900473ffffffffffffffffffffffffffffffffffffffff1673ffffffffffffffffffffffffffffffffffffffff163373ffffffffffffffffffffffffffffffffffffffff161480610b475750600160009054906101000a900473ffffffffffffffffffffffffffffffffffffffff1673ffffffffffffffffffffffffffffffffffffffff163373ffffffffffffffffffffffffffffffffffffffff16145b1515610b5257600080fd5b6006548214151515610b6357600080fd5b81600681905550813373ffffffffffffffffffffffffffffffffffffffff167fc9167e4a841ea3fffdee7b626da4597afe3523879a40521ec2e881737645f0ae60405160405180910390a360019050919050565b60008060009054906101000a900473ffffffffffffffffffffffffffffffffffffffff1673ffffffffffffffffffffffffffffffffffffffff163373ffffffffffffffffffffffffffffffffffffffff161480610c615750600160009054906101000a900473ffffffffffffffffffffffffffffffffffffffff1673ffffffffffffffffffffffffffffffffffffffff163373ffffffffffffffffffffffffffffffffffffffff16145b1515610c6c57600080fd5b6000826000191614151515610c8057600080fd5b60025460001916826000191614151515610c9957600080fd5b816002816000191690555081600019163373ffffffffffffffffffffffffffffffffffffffff167f10bcd4ebf5eb4a72aed4165f9c60624db2f28432e069b36d2a51db7af3ce649260405160405180910390a360019050919050565b60008060009054906101000a900473ffffffffffffffffffffffffffffffffffffffff1673ffffffffffffffffffffffffffffffffffffffff163373ffffffffffffffffffffffffffffffffffffffff161480610d9f5750600160009054906101000a900473ffffffffffffffffffffffffffffffffffffffff1673ffffffffffffffffffffffffffffffffffffffff163373ffffffffffffffffffffffffffffffffffffffff16145b1515610daa57600080fd5b6000826000191614151515610dbe57600080fd5b60045460001916826000191614151515610dd757600080fd5b816004816000191690555081600019163373ffffffffffffffffffffffffffffffffffffffff167fb6c9aa0578360fddf78a16a27b0e24065cda40062badfba6419d791ce6da821d60405160405180910390a360019050919050565b60008060009054906101000a900473ffffffffffffffffffffffffffffffffffffffff1673ffffffffffffffffffffffffffffffffffffffff163373ffffffffffffffffffffffffffffffffffffffff16141515610e9057600080fd5b3373ffffffffffffffffffffffffffffffffffffffff167f5c572226ad6ee27ebcc36c5d73ad4ed4967e10941f931eadb521f822c890250160405160405180910390a23373ffffffffffffffffffffffffffffffffffffffff16ff5b60008060009054906101000a900473ffffffffffffffffffffffffffffffffffffffff1673ffffffffffffffffffffffffffffffffffffffff163373ffffffffffffffffffffffffffffffffffffffff161480610f965750600160009054906101000a900473ffffffffffffffffffffffffffffffffffffffff1673ffffffffffffffffffffffffffffffffffffffff163373ffffffffffffffffffffffffffffffffffffffff16145b1515610fa157600080fd5b60075460001916826000191614151515610fba57600080fd5b816007816000191690555081600019163373ffffffffffffffffffffffffffffffffffffffff167ffcf0a5a19bf31bb5e253719fa4e87fb6a0d360ab9c8693a0903346a3be3992b960405160405180910390a360019050919050565b6000809054906101000a900473ffffffffffffffffffffffffffffffffffffffff1681565b60008060009054906101000a900473ffffffffffffffffffffffffffffffffffffffff1673ffffffffffffffffffffffffffffffffffffffff163373ffffffffffffffffffffffffffffffffffffffff1614806110e55750600160009054906101000a900473ffffffffffffffffffffffffffffffffffffffff1673ffffffffffffffffffffffffffffffffffffffff163373ffffffffffffffffffffffffffffffffffffffff16145b15156110f057600080fd5b600554821415151561110157600080fd5b81600581905550813373ffffffffffffffffffffffffffffffffffffffff167fbf5fc5fd4b94ae616917ea11ea4692aa670c208dd5fc4e4d03ea30683e1d436360405160405180910390a360019050919050565b60055481565b60008060009054906101000a900473ffffffffffffffffffffffffffffffffffffffff1673ffffffffffffffffffffffffffffffffffffffff163373ffffffffffffffffffffffffffffffffffffffff1614806112055750600160009054906101000a900473ffffffffffffffffffffffffffffffffffffffff1673ffffffffffffffffffffffffffffffffffffffff163373ffffffffffffffffffffffffffffffffffffffff16145b151561121057600080fd5b600073ffffffffffffffffffffffffffffffffffffffff168273ffffffffffffffffffffffffffffffffffffffff161415151561124c57600080fd5b600160009054906101000a900473ffffffffffffffffffffffffffffffffffffffff1673ffffffffffffffffffffffffffffffffffffffff168273ffffffffffffffffffffffffffffffffffffffff16141515156112a957600080fd5b81600160006101000a81548173ffffffffffffffffffffffffffffffffffffffff021916908373ffffffffffffffffffffffffffffffffffffffff1602179055508173ffffffffffffffffffffffffffffffffffffffff163373ffffffffffffffffffffffffffffffffffffffff167f8c296f3a759ab830cbfcd7f384a0f967edf2eca6f2b98d512c5652130493297060405160405180910390a360019050919050565b600160009054906101000a900473ffffffffffffffffffffffffffffffffffffffff1681565b60065481565b60045481565b600754815600a165627a7a72305820df1679faf7808d9c3e640a8fd145b112498c2f9e56ae864902f406ad876b486e0029a165627a7a72305820353c5621ed4fb429a3bb48261c9cf3e5f14bfa774044cf8d1cf14b799e4faeeb0029",
  "source": "pragma solidity 0.4.18;\r\n\r\nimport \"./Killable.sol\";\r\nimport \"./Product.sol\";\r\nimport \"./Order.sol\";\r\n\r\ncontract Shop is Killable {\r\n    struct ProductStruct {\r\n        Product product;\r\n        uint index;\r\n    }\r\n\r\n    struct OrderStruct {\r\n        Order order;\r\n        uint index;\r\n        bool paid;\r\n    }\r\n\r\n    mapping (address => ProductStruct) public productsStruct;\r\n    address[] public productIndex;\r\n    mapping (address => OrderStruct) public ordersStruct;\r\n    address[] public orderIndex;\r\n\r\n    address public merchant;\r\n    uint public balance;\r\n    bytes32 public name;\r\n\r\n    event LogSetShopName(address indexed who, bytes32 indexed name);\r\n    event LogSetMerchant(address indexed who, address indexed merchant);\r\n    event LogAddProduct(address indexed who, address indexed product, bytes32 indexed name, bytes32 sku, bytes32 category, uint price, uint stock, bytes32 image);\r\n    event LogRemoveProduct(address indexed who, address indexed product,  bytes32 indexed name, bytes32 sku, bytes32 category);\r\n    event LogSubmitOrder(address indexed who, address indexed order, uint indexed total);\r\n\r\n    modifier isOwnerOrMerchant() {\r\n        require(msg.sender == owner || msg.sender == merchant);\r\n        _;\r\n    }\r\n\r\n    modifier onlyIfProduct(address productAddress) {\r\n        require(productsStruct[productAddress].product != address(0));\r\n        _;\r\n    }\r\n\r\n    function Shop(address _merchant, bytes32 _name) Ownable() public {\r\n        require(_merchant != address(0));\r\n        require(_name != \"\");\r\n        merchant = _merchant;\r\n        name = _name;\r\n    }\r\n\r\n    function getProductCount()\r\n        public\r\n        constant\r\n        returns(uint productCount)\r\n    {\r\n        return productIndex.length;\r\n    }\r\n\r\n    function getOrderCount()\r\n        public\r\n        constant\r\n        returns(uint orderCount)\r\n    {\r\n        return orderIndex.length;\r\n    }\r\n\r\n    function setShopName(bytes32 _name)\r\n        isOwnerOrMerchant\r\n        public\r\n        returns(bool success)\r\n    {\r\n        require(_name != \"\");\r\n        require(_name != name);\r\n\r\n        name = _name;\r\n\r\n        LogSetShopName(msg.sender, _name);\r\n\r\n        return true;\r\n    }\r\n\r\n    function setMerchant(address _merchant)\r\n        isOwnerOrMerchant\r\n        public\r\n        returns(bool success)\r\n    {\r\n        require(_merchant != address(0));\r\n        require(_merchant != merchant);\r\n\r\n        merchant = _merchant;\r\n\r\n        LogSetMerchant(msg.sender, _merchant);\r\n\r\n        return true;\r\n    }\r\n\r\n    function addProduct(\r\n        bytes32 _name,\r\n        bytes32 _sku,\r\n        bytes32 _category,\r\n        uint _price,\r\n        uint _stock,\r\n        bytes32 _image\r\n    )\r\n        isOwnerOrMerchant\r\n        public\r\n        returns(address productContract)\r\n    {\r\n        require(_name != \"\");\r\n        require(_sku != \"\");\r\n        require(_category != \"\");\r\n\r\n        Product trustedProduct = new Product(merchant, _name, _sku, _category, _price, _stock, _image);\r\n\r\n        productIndex.push(trustedProduct);\r\n        productsStruct[trustedProduct].product = trustedProduct;\r\n        productsStruct[trustedProduct].index = productIndex.length - 1;\r\n\r\n        LogAddProduct(msg.sender, trustedProduct, _name, _sku, _category, _price, _stock, _image);\r\n\r\n        return trustedProduct;\r\n    }\r\n\r\n    function removeProduct(address _product)\r\n        isOwnerOrMerchant\r\n        onlyIfProduct(_product)\r\n        public\r\n        returns(bool success)\r\n    {\r\n        Product trustedProduct = Product(_product);\r\n\r\n        bytes32 productName = trustedProduct.name();\r\n        bytes32 productSku = trustedProduct.sku();\r\n        bytes32 productCategory = trustedProduct.category();\r\n\r\n        require(trustedProduct.destroy());\r\n\r\n        uint rowToDelete = productsStruct[_product].index;\r\n        address keyToMove = productIndex[productIndex.length-1]; \r\n\r\n        productIndex[rowToDelete] = keyToMove; \r\n        productsStruct[keyToMove].index = rowToDelete;\r\n        productIndex.length = productIndex.length - 1;\r\n\r\n        LogRemoveProduct(msg.sender, _product, productName, productSku, productCategory);\r\n\r\n        return true;\r\n    }\r\n\r\n    function submitOrder(address _order)\r\n        public\r\n        payable\r\n        returns(bool success)\r\n    {\r\n        // validate order\r\n        Order untrustedOrder = Order(_order);\r\n\r\n        // Only 10 unique items - no unnounded looping\r\n        require(untrustedOrder.killed() != true);\r\n        require(untrustedOrder.paused() != true);\r\n        require(untrustedOrder.status() == Order.OrderStatus.Created);\r\n        require(untrustedOrder.total() > 0);\r\n        require(msg.value == untrustedOrder.total());\r\n        require(msg.value + balance > balance);\r\n\r\n        balance += msg.value;\r\n\r\n        uint productCount = untrustedOrder.getProductCount();\r\n\r\n        require(productCount > 0);\r\n        require(productCount < 10);\r\n\r\n        uint orderTotal = 0;\r\n\r\n        // accounting, in case we have been duped\r\n        for (uint8 i = 0; i < productCount; i++) {\r\n            Product untrustedProduct = Product(untrustedOrder.getProductAtIndex(i));\r\n\r\n            uint productQuantity = untrustedOrder.getProductQuantityAtIndex(i);\r\n            uint productStock = untrustedProduct.stock();\r\n            uint remainingStock = productStock - productQuantity;\r\n\r\n            require(productQuantity > 0);\r\n            require(productQuantity <= untrustedProduct.stock());\r\n            require(remainingStock < productStock);\r\n\r\n            uint productPrice = untrustedProduct.price();\r\n            uint productTotal = productPrice * productQuantity;\r\n\r\n            require(productTotal > 0);\r\n            require(productTotal >= productPrice);\r\n            require(orderTotal + productTotal > orderTotal);\r\n\r\n            require(untrustedProduct.setStock(remainingStock));\r\n\r\n            orderTotal += productTotal;            \r\n        }\r\n\r\n        require(orderTotal == msg.value);\r\n        require(untrustedOrder.setStatus(Order.OrderStatus.Paid));\r\n\r\n        orderIndex.push(untrustedOrder);\r\n        ordersStruct[untrustedOrder].order = untrustedOrder;\r\n        ordersStruct[untrustedOrder].index = orderIndex.length;\r\n\r\n        LogSubmitOrder(msg.sender, _order, orderTotal);\r\n\r\n        return true;\r\n    }\r\n}",
  "sourcePath": "F:\\DAPPS\\shop\\contracts\\Shop.sol",
  "compiler": {
    "name": "solc",
    "version": "0.4.18+commit.9cf6e910.Emscripten.clang"
  },
  "schemaVersion": "1.0.1",
  "updatedAt": "2017-11-18T13:16:15.931Z"
}