{
  "contractName": "Killable",
  "abi": [
    {
      "constant": false,
      "inputs": [
        {
          "name": "newOwner",
          "type": "address"
        }
      ],
      "name": "setOwner",
      "outputs": [
        {
          "name": "success",
          "type": "bool"
        }
      ],
      "payable": false,
      "stateMutability": "nonpayable",
      "type": "function"
    },
    {
      "constant": false,
      "inputs": [
        {
          "name": "newPaused",
          "type": "bool"
        }
      ],
      "name": "setPaused",
      "outputs": [
        {
          "name": "success",
          "type": "bool"
        }
      ],
      "payable": false,
      "stateMutability": "nonpayable",
      "type": "function"
    },
    {
      "constant": true,
      "inputs": [],
      "name": "killed",
      "outputs": [
        {
          "name": "",
          "type": "bool"
        }
      ],
      "payable": false,
      "stateMutability": "view",
      "type": "function"
    },
    {
      "constant": false,
      "inputs": [],
      "name": "kill",
      "outputs": [
        {
          "name": "success",
          "type": "bool"
        }
      ],
      "payable": false,
      "stateMutability": "nonpayable",
      "type": "function"
    },
    {
      "constant": false,
      "inputs": [],
      "name": "emergencyWithdrawal",
      "outputs": [
        {
          "name": "success",
          "type": "bool"
        }
      ],
      "payable": false,
      "stateMutability": "nonpayable",
      "type": "function"
    },
    {
      "constant": true,
      "inputs": [],
      "name": "paused",
      "outputs": [
        {
          "name": "",
          "type": "bool"
        }
      ],
      "payable": false,
      "stateMutability": "view",
      "type": "function"
    },
    {
      "constant": true,
      "inputs": [],
      "name": "owner",
      "outputs": [
        {
          "name": "",
          "type": "address"
        }
      ],
      "payable": false,
      "stateMutability": "view",
      "type": "function"
    },
    {
      "anonymous": false,
      "inputs": [
        {
          "indexed": true,
          "name": "who",
          "type": "address"
        }
      ],
      "name": "LogKill",
      "type": "event"
    },
    {
      "anonymous": false,
      "inputs": [
        {
          "indexed": true,
          "name": "who",
          "type": "address"
        },
        {
          "indexed": false,
          "name": "withdrawalAmount",
          "type": "uint256"
        }
      ],
      "name": "LogEmergencyWithdrawal",
      "type": "event"
    },
    {
      "anonymous": false,
      "inputs": [
        {
          "indexed": true,
          "name": "who",
          "type": "address"
        },
        {
          "indexed": true,
          "name": "paused",
          "type": "bool"
        }
      ],
      "name": "LogSetPaused",
      "type": "event"
    },
    {
      "anonymous": false,
      "inputs": [
        {
          "indexed": true,
          "name": "oldOwner",
          "type": "address"
        },
        {
          "indexed": true,
          "name": "newOwner",
          "type": "address"
        }
      ],
      "name": "LogSetOwner",
      "type": "event"
    }
  ],
  "bytecode": "0x6060604052336000806101000a81548173ffffffffffffffffffffffffffffffffffffffff021916908373ffffffffffffffffffffffffffffffffffffffff16021790555061079e806100536000396000f300606060405260043610610083576000357c0100000000000000000000000000000000000000000000000000000000900463ffffffff16806313af40351461008857806316c38b3c146100d95780631f3a0e411461011657806341c0e1b5146101435780635b0a3843146101705780635c975abb1461019d5780638da5cb5b146101ca575b600080fd5b341561009357600080fd5b6100bf600480803573ffffffffffffffffffffffffffffffffffffffff1690602001909190505061021f565b604051808215151515815260200191505060405180910390f35b34156100e457600080fd5b6100fc600480803515159060200190919050506103d8565b604051808215151515815260200191505060405180910390f35b341561012157600080fd5b6101296104e1565b604051808215151515815260200191505060405180910390f35b341561014e57600080fd5b6101566104f4565b604051808215151515815260200191505060405180910390f35b341561017b57600080fd5b6101836105ed565b604051808215151515815260200191505060405180910390f35b34156101a857600080fd5b6101b061073a565b604051808215151515815260200191505060405180910390f35b34156101d557600080fd5b6101dd61074d565b604051808273ffffffffffffffffffffffffffffffffffffffff1673ffffffffffffffffffffffffffffffffffffffff16815260200191505060405180910390f35b60008060009054906101000a900473ffffffffffffffffffffffffffffffffffffffff1673ffffffffffffffffffffffffffffffffffffffff163373ffffffffffffffffffffffffffffffffffffffff1614151561027c57600080fd5b600073ffffffffffffffffffffffffffffffffffffffff168273ffffffffffffffffffffffffffffffffffffffff16141515156102b857600080fd5b6000809054906101000a900473ffffffffffffffffffffffffffffffffffffffff1673ffffffffffffffffffffffffffffffffffffffff168273ffffffffffffffffffffffffffffffffffffffff161415151561031457600080fd5b8173ffffffffffffffffffffffffffffffffffffffff166000809054906101000a900473ffffffffffffffffffffffffffffffffffffffff1673ffffffffffffffffffffffffffffffffffffffff167fc66d1d23a5b7baf1f496bb19f580d7b12070ad5a08a758c990db97d961fa33a660405160405180910390a3816000806101000a81548173ffffffffffffffffffffffffffffffffffffffff021916908373ffffffffffffffffffffffffffffffffffffffff16021790555060019050919050565b60008060009054906101000a900473ffffffffffffffffffffffffffffffffffffffff1673ffffffffffffffffffffffffffffffffffffffff163373ffffffffffffffffffffffffffffffffffffffff1614151561043557600080fd5b600060149054906101000a900460ff1615158215151415151561045757600080fd5b81600060146101000a81548160ff0219169083151502179055508115156000809054906101000a900473ffffffffffffffffffffffffffffffffffffffff1673ffffffffffffffffffffffffffffffffffffffff167f271ac239d392431f17dea7ef0a13e9a6784ca02b0ce5d00a400c0490f17fecd760405160405180910390a360019050919050565b600060159054906101000a900460ff1681565b60008060009054906101000a900473ffffffffffffffffffffffffffffffffffffffff1673ffffffffffffffffffffffffffffffffffffffff163373ffffffffffffffffffffffffffffffffffffffff1614151561055157600080fd5b600060149054906101000a900460ff16151561056c57600080fd5b600060159054906101000a900460ff1615151561058857600080fd5b6001600060156101000a81548160ff0219169083151502179055503373ffffffffffffffffffffffffffffffffffffffff167f7cd531232cf2a935531a2059a1021ee56cecce23e6f421cfa5cb1043fe101ab860405160405180910390a26001905090565b60008060009054906101000a900473ffffffffffffffffffffffffffffffffffffffff1673ffffffffffffffffffffffffffffffffffffffff163373ffffffffffffffffffffffffffffffffffffffff1614151561064a57600080fd5b600060159054906101000a900460ff16151561066557600080fd5b3373ffffffffffffffffffffffffffffffffffffffff167f88cfe71ce7f29d85a8667d1457b17ced3748124d76866a6ef65bc53f928001da3073ffffffffffffffffffffffffffffffffffffffff16316040518082815260200191505060405180910390a23373ffffffffffffffffffffffffffffffffffffffff166108fc3073ffffffffffffffffffffffffffffffffffffffff16319081150290604051600060405180830381858888f19350505050151561072157600080fd5b3373ffffffffffffffffffffffffffffffffffffffff16ff5b600060149054906101000a900460ff1681565b6000809054906101000a900473ffffffffffffffffffffffffffffffffffffffff16815600a165627a7a723058206475c2bbca9142e0e099529a4a15d0a1bb46568000787bbc3679e8bab9f70a400029",
  "source": "pragma solidity 0.4.18;\r\n\r\nimport \"./Pauseable.sol\";\r\n\r\ncontract Killable is Pauseable {\r\n    bool public killed;\r\n    //bool public isWithdrawn;\r\n\r\n    event LogKill(address indexed who);\r\n    event LogEmergencyWithdrawal(address indexed who, uint withdrawalAmount);\r\n\r\n    modifier isKilled() {\r\n        require(killed);\r\n        _;\r\n    }\r\n\r\n    modifier isNotKilled() {\r\n        require(!killed);\r\n        _;\r\n    }\r\n\r\n    function kill() public isOwner isPaused isNotKilled returns(bool success) {\r\n        killed = true;\r\n        LogKill(msg.sender);\r\n        return true;\r\n    }\r\n\r\n    function emergencyWithdrawal() public isOwner isKilled returns(bool success) {\r\n        //require(!isWithdrawn);\r\n        //isWithdrawn = true;\r\n        \r\n        LogEmergencyWithdrawal(msg.sender, this.balance);\r\n        msg.sender.transfer(this.balance);\r\n        //suicide??\r\n        selfdestruct(msg.sender); // test this\r\n        return true;\r\n    }\r\n}",
  "sourcePath": "F:\\DAPPS\\shop\\contracts\\Killable.sol",
  "compiler": {
    "name": "solc",
    "version": "0.4.18+commit.9cf6e910.Emscripten.clang"
  },
  "schemaVersion": "1.0.1",
  "updatedAt": "2017-11-18T13:16:15.928Z"
}