{
  "contractName": "Pauseable",
  "abi": [
    {
      "constant": false,
      "inputs": [
        {
          "name": "newOwner",
          "type": "address"
        }
      ],
      "name": "setOwner",
      "outputs": [
        {
          "name": "success",
          "type": "bool"
        }
      ],
      "payable": false,
      "stateMutability": "nonpayable",
      "type": "function"
    },
    {
      "constant": false,
      "inputs": [
        {
          "name": "newPaused",
          "type": "bool"
        }
      ],
      "name": "setPaused",
      "outputs": [
        {
          "name": "success",
          "type": "bool"
        }
      ],
      "payable": false,
      "stateMutability": "nonpayable",
      "type": "function"
    },
    {
      "constant": true,
      "inputs": [],
      "name": "paused",
      "outputs": [
        {
          "name": "",
          "type": "bool"
        }
      ],
      "payable": false,
      "stateMutability": "view",
      "type": "function"
    },
    {
      "constant": true,
      "inputs": [],
      "name": "owner",
      "outputs": [
        {
          "name": "",
          "type": "address"
        }
      ],
      "payable": false,
      "stateMutability": "view",
      "type": "function"
    },
    {
      "anonymous": false,
      "inputs": [
        {
          "indexed": true,
          "name": "who",
          "type": "address"
        },
        {
          "indexed": true,
          "name": "paused",
          "type": "bool"
        }
      ],
      "name": "LogSetPaused",
      "type": "event"
    },
    {
      "anonymous": false,
      "inputs": [
        {
          "indexed": true,
          "name": "oldOwner",
          "type": "address"
        },
        {
          "indexed": true,
          "name": "newOwner",
          "type": "address"
        }
      ],
      "name": "LogSetOwner",
      "type": "event"
    }
  ],
  "bytecode": "0x6060604052336000806101000a81548173ffffffffffffffffffffffffffffffffffffffff021916908373ffffffffffffffffffffffffffffffffffffffff16021790555061049d806100536000396000f300606060405260043610610062576000357c0100000000000000000000000000000000000000000000000000000000900463ffffffff16806313af40351461006757806316c38b3c146100b85780635c975abb146100f55780638da5cb5b14610122575b600080fd5b341561007257600080fd5b61009e600480803573ffffffffffffffffffffffffffffffffffffffff16906020019091905050610177565b604051808215151515815260200191505060405180910390f35b34156100c357600080fd5b6100db60048080351515906020019091905050610330565b604051808215151515815260200191505060405180910390f35b341561010057600080fd5b610108610439565b604051808215151515815260200191505060405180910390f35b341561012d57600080fd5b61013561044c565b604051808273ffffffffffffffffffffffffffffffffffffffff1673ffffffffffffffffffffffffffffffffffffffff16815260200191505060405180910390f35b60008060009054906101000a900473ffffffffffffffffffffffffffffffffffffffff1673ffffffffffffffffffffffffffffffffffffffff163373ffffffffffffffffffffffffffffffffffffffff161415156101d457600080fd5b600073ffffffffffffffffffffffffffffffffffffffff168273ffffffffffffffffffffffffffffffffffffffff161415151561021057600080fd5b6000809054906101000a900473ffffffffffffffffffffffffffffffffffffffff1673ffffffffffffffffffffffffffffffffffffffff168273ffffffffffffffffffffffffffffffffffffffff161415151561026c57600080fd5b8173ffffffffffffffffffffffffffffffffffffffff166000809054906101000a900473ffffffffffffffffffffffffffffffffffffffff1673ffffffffffffffffffffffffffffffffffffffff167fc66d1d23a5b7baf1f496bb19f580d7b12070ad5a08a758c990db97d961fa33a660405160405180910390a3816000806101000a81548173ffffffffffffffffffffffffffffffffffffffff021916908373ffffffffffffffffffffffffffffffffffffffff16021790555060019050919050565b60008060009054906101000a900473ffffffffffffffffffffffffffffffffffffffff1673ffffffffffffffffffffffffffffffffffffffff163373ffffffffffffffffffffffffffffffffffffffff1614151561038d57600080fd5b600060149054906101000a900460ff161515821515141515156103af57600080fd5b81600060146101000a81548160ff0219169083151502179055508115156000809054906101000a900473ffffffffffffffffffffffffffffffffffffffff1673ffffffffffffffffffffffffffffffffffffffff167f271ac239d392431f17dea7ef0a13e9a6784ca02b0ce5d00a400c0490f17fecd760405160405180910390a360019050919050565b600060149054906101000a900460ff1681565b6000809054906101000a900473ffffffffffffffffffffffffffffffffffffffff16815600a165627a7a723058204387382d21b11553abd32e8c41feddb251ea3ad302b55a1da39bd34f51f7af2a0029",
  "source": "pragma solidity 0.4.18;\r\n\r\nimport \"./Ownable.sol\";\r\n\r\ncontract Pauseable is Ownable {\r\n    bool public paused;\r\n\r\n    event LogSetPaused(address indexed who, bool indexed paused);\r\n\r\n    modifier isPaused() {\r\n        require(paused);\r\n        _;\r\n    }\r\n\r\n    modifier isNotPaused() {\r\n        require(!paused);\r\n        _;\r\n    }\r\n\r\n    function setPaused(bool newPaused) public isOwner returns(bool success) {\r\n        require(newPaused != paused);\r\n        paused = newPaused;\r\n        LogSetPaused(owner, newPaused);\r\n        return true;\r\n    }\r\n}\r\n",
  "sourcePath": "F:\\DAPPS\\shop\\contracts\\Pauseable.sol",
  "compiler": {
    "name": "solc",
    "version": "0.4.18+commit.9cf6e910.Emscripten.clang"
  },
  "schemaVersion": "1.0.1",
  "updatedAt": "2017-11-18T13:16:15.930Z"
}